:100000000C9462020C94C6020C94AB020C94AB02EA
:100010000C94AB020C94AB020C94AB020C94AB02AC
:100020000C94AB020C94AB020C94AB020C94AB029C
:100030000C94AB020C94AB020C9450170C94AB02D2
:100040000C94AB020C94AB020C94AB020C94AB027C
:100050000C94AB020C94AB020C94AB020C94AB026C
:100060000C94AB020C94AB022B0014001A00080095
:10007000150017001C0018000C00120013002A00C5
:10008000290004001600070009000A000B000D00FB
:100090000E000F0033003400E1001D001B000600BD
:1000A0001900050011001000360037003800280044
:1000B0000751E000E200E30003512C00010004516D
:1000C0005000510052004F002B0014001A0009008C
:1000D00013000A000D000F0018001C0033002A0056
:1000E0002900040015001600170007000B0011007E
:1000F00008000C0012003400E1001D001B00060087
:10010000190005000E0010003600370038002800E6
:100110000751E000E200E30003512C00010004510C
:100120005000510052004F002B00340036003700C1
:1001300013001C0009000A00060015000F002A0029
:10014000290004001200080018000C0007000B0032
:100150001700110016003800E100330014000D00F4
:100160000E001B00050010001A0019001D002800D9
:100170000751E000E200E30003512C0001000451AC
:100180005000510052004F0035021E021F02200293
:1001900021022202230224022502260227022A002B
:1001A0004C003A003B003C003D003E003F002D0269
:1001B0002E022F02300231020100400041004200B5
:1001C000430044004500320264024A004D00010031
:1001D00001000100010001000100AE00010001006A
:1001E000BC00AA00A900BB0035001E001F002000B3
:1001F00021002200230024002500260027002A00D9
:100200004C003A003B003C003D003E003F002D000A
:100210002E002F003000310001004000410042005C
:10022000430044004500320064004B004E000100D2
:1002300001000100010001000100AE000100010009
:10024000BE00AA00A900BD001E001E001E001E0068
:100250001E001E001E001E001E001E001E001E00AE
:10026000000014001A000800150017001C001800F8
:100270000C00120013002F000000040016000700FD
:1002800009000A000B000D000E000F0033003400BF
:10029000F45C0000000006001900000000001100DE
:1002A00010000000000000000100005C015CC25C66
:1002B000C35CC55CC65CC75CC85CC95CCA5C4C00FE
:1002C00001000100295C1D5C1E5C135C0A5CF05C93
:1002D000F15CF25CF35C010001002B5C2A5C265CA3
:1002E000275C2C5C2D5C0000000001000100010077
:1002F00001000100010001000100010001000100F6
:1003000001000100010001000100010001000100E5
:1003100001000100010001000100010001000100D5
:1003200001003A003B003C003D003E003F00010060
:1003300001000100010001000100400041004200F5
:1003400043004400450001000100010001000100DC
:100350000100010001000100010001000100010095
:10036000010001000100010009023B0002010080C0
:10037000320904000001030101000921010100010B
:100380002240000705810308000109040100010360
:1003900000000009210101000122840007058303F8
:1003A00008000105010902A10185020901A100055A
:1003B00009190129051500250175019505810275A9
:1003C00003950181030501093009311581257F75E8
:1003D000089502810609381581257F35004500758D
:1003E0000895018106050C0A38021581257F7508DC
:1003F00095018106C0C005010980A1018503150191
:1004000026B700190129B7751095018100C0050CA8
:100410000901A10185041501269C0219012A9C02EB
:10042000751095018100C005010906A101750195AE
:1004300008050719E029E7150025018102950175D6
:100440000881039505750105081901290591029593
:10045000017503910395067508150026FF00050731
:10046000190029FF8100C01201100100000008C01E
:1004700016DB27000101020301240364006D00392B
:10048000007200650063006F007200640073002E4C
:100490000063006F006D003A00700031000C0350E3
:1004A000006C00610069006400160364006D00398F
:1004B000007200650063006F007200640073000446
:1004C0000309040011241FBECFEFD8E0DEBFCDBF6B
:1004D00004B603FE29C08091A3029091A402A091CA
:1004E000A502B091A6028730904BA740B04BE1F433
:1004F0001092A3021092A4021092A5021092A602DA
:1005000014BE84B7877F84BF0FB6F894A8958091F6
:100510006000886180936000109260000FBEE091DF
:100520005D02F0915E02099411E0A0E0B1E0E2EF1B
:10053000F9E302C005900D92A432B107D9F722E089
:10054000A4E2B1E001C01D92A33AB207E1F70E9414
:10055000BC190C94F71C0C940000A82FB92F80E054
:1005600090E041E050EA609530E009C02D9182278B
:100570009795879510F084279527305EC8F36F5FB5
:10058000A8F30895EADF8D939D930895CF93CFB795
:10059000CF93DF93C3954B9BE9F74B9B0BC04B9BD2
:1005A00009C04B9B07C04B9B05C04B9B03C04B9B9B
:1005B00001C08BC06F93C0917A02DD27CF57DD4F0A
:1005C0002F9365E54B9B03C02F916F91E6CF0F935F
:1005D0001F934F9320E040E15F9309B10C7003FB40
:1005E00027F93F9350E03BE039C01C7040642F77FF
:1005F000012F5F5F1EC0406819B11C702F775250E9
:100600001FC0406409B12F770C70D1F15F5F00C04B
:1006100023C0406219B12F771C7091F15F5F00C059
:1006200025C00C701027515012F45D5F000011506E
:1006300027952C3F19B1C8F61C700127015027954A
:100640002C3FC8F64227499309B10C7010274F730D
:10065000115027952C3FA8F64695469519B11C7068
:1006600079F00127015027952C3F98F66B5A60F3DB
:10067000315009B1B0F600C011E01CBB002719C011
:100680003B503195C31BD04011E01CBB0881033C9B
:1006900009F10B34F9F0209178021981110F12132E
:1006A000EDCF4A81441F093651F10D3211F0013E60
:1006B00029F700937F023F915F914F911F910F9116
:1006C0002F916F91CCB3C0FD65CFDF91CF91CFBF9C
:1006D000CF91189520917F02222369F310917D021A
:1006E0001123E9F53430EAF130937D022093790249
:1006F00010917A023BE0311B30937A0232C00091B4
:100700007D02013064F50AE54F7049F43091130120
:1007100034FD28C000931301C1E6D2E027C0433066
:1007200049F030916C0234FD1DC000936C02CDE69F
:10073000D2E01CC03091970234FD14C000939702A0
:10074000C8E9D2E013C0052710E000C000000BB9D3
:100750001AC0052710E0221F1DC010E021C04AE585
:1007600002C032ED432FC4E1D0E032E01AB11C6088
:100770005B9A0BB11AB95CE020E865E320FF05271E
:100780000BB9279517951C3FF0F66695B8F7B1F7AA
:1007900020FF05270BB9279517951C3FD0F6279505
:1007A000179517FF052700001C3F0BB9B0F62991DC
:1007B0003A9519F7037F10917E02110FC651D04070
:1007C0000BB911F01093780211E01CBB08601AB14C
:1007D000137F402F437F54E05A95F1F70BB91AB9B4
:1007E0004BB969CF0C94F9080C94FA080C940204E4
:1007F0000C94FF040F9306E024E043E00E94A10460
:100800000F910895FB01823F2CE5920729F148F4EE
:10081000803F2CE5920799F0813F9C45C1F081E033
:100820000895833F2CE59207E1F0843F9C45B9F79A
:1008300082818823A9F385E00E94361406C0828154
:10084000882371F380E00E948E0480E00895828105
:10085000882331F381E0F7CF8281882309F382E096
:10086000F2CF82818823E1F284E00E94361483E093
:100870000E94361486E00E94361485E00E9415140A
:100880000E945216811102C00E94D1160E946A165F
:1008900090E09093600280935F02806880935F0293
:1008A0000E946E16D2CF81E008951F93CF93DF93FD
:1008B00000D000D01F92CDB7DEB749835A836B8337
:1008C00020914D0189819A8121111BC06623A9F0D5
:1008D0000E940B15182F682F89819A810E94B114EC
:1008E00069817A81812F0F900F900F900F900F9058
:1008F000DF91CF911F910C947E060E94E014182F77
:10090000EFCF0E940B1569817A81EDCFFC01408108
:1009100051816281738184810C945504CF93DF935C
:10092000C1E0D0E002C0CC0FDD1F8A95E2F78C2F2A
:100930000E946516BE0190E080E0DF91CF910C949B
:10094000B5138F929F92AF92BF92CF92DF92EF92A8
:10095000FF920F931F936B017C0181E090E0A0E078
:10096000B0E04C015D0104C0880C991CAA1CBB1CA2
:100970004A95D2F7B501A4014C015D0104C0880C71
:10098000991CAA1CBB1C2A95D2F7482959296A2907
:100990007B2904C0880F991FAA1FBB1F0A95D2F795
:1009A0008A019B010C211D212E213F2104171507CF
:1009B0002607370789F48C299D29AE29BF29BC0158
:1009C000CD011F910F91FF90EF90DF90CF90BF90DE
:1009D000AF909F908F90089580959095A095B09539
:1009E0008C219D21AE21BF21EACF0E945216811198
:1009F00002C00E94D1160C94F2030C94F4030895E3
:100A00000C94F80308950E94C20F0E9402052FEF74
:100A100084E39CE0215080409040E1F700C000005A
:100A20000C9476170F931F93CF93DF938C010E9442
:100A30008604EC01B8010E94F603882309F482C001
:100A4000C6318CE5D80709F435C108F04BC0C13078
:100A5000FCE5DF0709F47CC080F4C115DC4509F42E
:100A60006CC081E08093290180932A01C801DF9145
:100A7000CF911F910F910C945304C531FCE5DF0712
:100A800080F7F8018281882389F30E945216811130
:100A900002C00E94D1160E946A1690E090936002F4
:100AA00080935F02FE01E350FC4580915F0281600C
:100AB000E231F10508F059C0E05AFA4F0C949B1C42
:100AC000B205BE05C205C605CA05CE05D205D605C6
:100AD000DA05DE05E205E605EA05EE05F205F605AE
:100AE000FA05FE05C83D8CE5D80709F4A5C0A8F4B1
:100AF000C73DDC4509F0B5CFF8018281882309F4B0
:100B000084C0109229010E941A17909326018093A5
:100B1000250182E00E94E60C15C0C93D8CE5D8078E
:100B200009F4ADC0CE3DDC4509F09BCFF8018281D0
:100B3000882341F00E94D11605C0F80182818111FD
:100B40000E94030580E0DF91CF911F910F910895DE
:100B5000F80182818823B1F38091B901816080938B
:100B6000B901F0CF80915F02826080935F02809133
:100B70005F020E946E160E94C20FE4CF80915F0256
:100B80008460F3CF80915F028860EFCF80915F0235
:100B90008061EBCF80915F028062E7CF80915F023E
:100BA0008064E3CF80915F028068DFCF80915F0235
:100BB0008460EACF80915F028E7FD7CF80915F0201
:100BC0008D7FD3CF80915F028B7FCFCF80915F02EB
:100BD000877FCBCF80915F028F7EC7CF80915F02EE
:100BE0008F7DC3CF80915F028F7BBFCF80915F02EB
:100BF0008F77BBCF80915F028B7FEACF90915F02AE
:100C0000892F97FB87F98058B0CF809129018111F6
:100C10000FC080912501909126010E942617883CE3
:100C2000910530F486E20E94870B86E20E94900CC8
:100C300082E00E94ED0C86CFF8018281882351F07A
:100C400010922A010E941A1790932801809327017D
:100C500080E260CF80912A0181110FC0809127012D
:100C6000909128010E942617883C910530F487E274
:100C70000E94870B87E20E94900C80E2DACFF80195
:100C800082818111DDCF80912A018111F6CF80917F
:100C90002701909128010E942617883C910568F74A
:100CA00080E20E94ED0C88E20E94870B88E20E949D
:100CB000900C48CF0E94A015F8019281992381F0F1
:100CC0008A7A91E009F490E090932401811106C0A2
:100CD00089E20E947B150E94EF1534CF85E3F9CF9E
:100CE00080912401811104C089E20E948215F3CF12
:100CF00085E3FBCF90E080E008950895972F70E0A2
:100D00002CE0929F600D711D1124FB0190E3899FDF
:100D1000E00DF11D1124EE0FFF1FE859FF4F8591E3
:100D200094910895FC01EE0FFF1FE859FC4F859147
:100D300094910895CF93DF930E947E060E945608F7
:100D4000EC018115904508F043C0C11580E4D80737
:100D500008F017C1C83ED10528F5C03ED10508F0FE
:100D6000A3C0C83AD10580F4C53AD10508F092C0B5
:100D7000C130D10509F498C020F0C430D10508F085
:100D800093C0D0E0C0E090C0CF3BD10508F490C044
:100D9000CE01805C9109C03CD10598F30E94920677
:100DA000EC0182C0C11520E2D20750F4C11581E0E8
:100DB000D80708F079C0C03FD10518F3D06574C0DA
:100DC000C11520E3D20708F0D2C0CE019F70E6CF54
:100DD000C11585E5D80760F5C11524E5D20708F0EF
:100DE000FEC0C11582E5D80750F4C11521E5D20730
:100DF00008F4CAC0DC2FCC27C16FD06A55C09C2F25
:100E0000969596959E0123703327C115D34508F01A
:100E1000D7C0C1E0D0E002C0CC0FDD1F2A95E2F7B9
:100E200020E2929FC0011124C82BD92BDC683CC062
:100E3000C11529E5D207A8F4C11588E5D80708F03F
:100E4000D3C0C11526E5D20708F09BCF8C2F0E9496
:100E5000D608C82FD0E0DC2FCC27CC27DF71D0629A
:100E600023C0C1158AE5D80708F4C3C0CE01905647
:100E70008115904208F085CF8D2F8F710E94D60882
:100E8000DD27D06290E0982F882788279F71C82B94
:100E9000D92B0AC0C53AD10509F4BDC0C63AD1055F
:100EA00009F4BCC0C3E8D0E4CE01DF91CF9108952E
:100EB000C83AD10509F4B5C0C93AD10509F4B4C09E
:100EC000CA3AD10509F4B3C0CB3AD10509F4B2C08E
:100ED000CC3AD10509F4B1C0CB3BD10509F4B0C07F
:100EE000CC3BD10509F4AFC0CD3AD10509F4AEC071
:100EF000C03BD10509F4ADC0CE3AD10509F4ACC070
:100F0000CF3AD10509F4ABC0C13BD10509F4AAC061
:100F1000C23BD10509F4A9C0C33BD10509F4A8C05F
:100F2000C43BD10509F4A7C0C53BD10509F4A6C04F
:100F3000C63BD10509F4A5C0C73BD10509F4A4C03F
:100F4000C83BD10509F4A3C0C93BD10509F4A2C02F
:100F5000CD3BD10509F4A1C0CE3BD10509F4A0C019
:100F6000CA3BD10509F09FC0CAE2D6E49DCFCE01AD
:100F70009927D3FF03C0EC01D86C96CFEC01D06C5D
:100F800093CFDF70D06A90CFCE01F4E0969587952D
:100F9000FA95E1F783709C2F937021E030E002C056
:100FA000220F331F9A95E2F73C68382BC695C695F9
:100FB000C37080E2C89FE0011124C22BD32B74CFF1
:100FC000C1E0D0E002C0CC0FDD1F2A95E2F720E29D
:100FD000929FC0011124C82BD92BDA6865CFDC2F72
:100FE000CC27C46FD06A60CFDC2FCC27C06FD06A0B
:100FF0005BCF8C2F8F700E94D60834E0D695C795B2
:101000003A95E1F7CF70D0E0DC2FCC27D06A8F7013
:10101000806EC82B49CFC1E8D0E446CFC2E8D0E407
:1010200043CFC2EED4E440CFC9EED4E43DCFCAEE04
:10103000D4E43ACFC5EBD4E437CFC6EBD4E434CF15
:10104000C3EBD4E431CFC4EBD4E42ECFC7EBD4E46C
:101050002BCFCCECD4E428CFCDECD4E425CFC3E81F
:10106000D5E422CFCAE8D5E41FCFC2E9D5E41CCF2E
:10107000C4E9D5E419CFC1E2D6E416CFC3E2D6E481
:1010800013CFC4E2D6E410CFC5E2D6E40DCFC6E25A
:10109000D6E40ACFC7E2D6E407CFCFE6D4E404CF44
:1010A000C0E7D4E401CFC0E0D4E4FECE823891059D
:1010B00049F1B0F48133910509F45CC048F48932F8
:1010C000910509F452C08A32910509F458C0089577
:1010D0008533910509F444C08933910599F0089549
:1010E000833E910531F138F4803E910591F0823EC6
:1010F0009105B1F00895863E910511F1873E910565
:1011000041F1089520915F022370C9F080EE90E0D4
:10111000089520915F0220FF12C089E390E00895B6
:1011200020915F0222FF0BC024FF2EC090E080E0E0
:10113000089520915F0222FD2AC024FDF7CF089573
:1011400020915F0223FFFBCF24FDF0CF87EE90E0DC
:10115000089520915F0223FFF0CF86EE90E008957E
:1011600020915F0225FD16C0089520915F0225FDA4
:1011700014C0089520915F0226FD12C008952091A9
:101180005F0226FD10C0089583EE90E0089582EE80
:1011900090E0089589E290E0089585E390E0089555
:1011A0008AE290E0089581E390E0C9CF90915F02D8
:1011B00092FF06C0282F2871283069F4877F846049
:1011C00093FF06C0282F2871283161F4877E84613F
:1011D00094FD877E0895282F2471243089F78B7F12
:1011E0008860EECF282F2471243191F78B7E88619F
:1011F000EFCF08950895E82FF0E0EE0FFF1FE55DB3
:10120000FE4F8081918108950895CF93DF93A0E2EE
:10121000B1E024E231E061E070E09D91E92FE295D8
:10122000EF70F0E041A19F70EB0102C0CC0FDD1F19
:101230009A95E2F7CE018095842381A32A173B0774
:1012400061F7A4E1B1E040E251E0C1E0D0E08D916E
:10125000E82FE295EF70F0E061A18F709E0101C070
:10126000220F8A95EAF7922F9095962391A382A157
:10127000822B82A34A175B0751F710923401109218
:10128000330110922C0110922B0110923601109212
:10129000350110922E0110922D01109238011092FA
:1012A00037011092300110922F0110923A011092E2
:1012B0003901109232011092310184E00E94F70945
:1012C000DF91CF910C94F5046F927F929F92AF9231
:1012D000BF92CF92DF92EF92FF920F931F93CF9323
:1012E000DF93A3E3B1E090E2692E91E0792E20E054
:1012F000EE24E394F12CAD90BC90119711961C92C2
:101300001E92E30189913E01E82FE295EF70F0E033
:1013100091A18F70B70101C0660F8A95EAF7892FF6
:10132000862B81A382A1962E9094892182A3D0EA54
:10133000DA95F1F784E1C82E81E0D82E50E040E044
:10134000E60139916E01032F02950F7010E0E8015C
:1013500088A10D911C91119790E03F7002C0959566
:1013600087953A95E2F780FD3FC0C701042E02C081
:10137000880F991F0A94E2F7082B192B11961C93DA
:101380000E934F5F5F4F4C305105D1F681A18921FB
:1013900081A382A1682B62A381E04D915C9111979A
:1013A0004A155B0509F480E0282B1296D4E26D16ED
:1013B000D1E07D0609F09FCF44E06BE271E083E36A
:1013C00091E00E94F8090E94FD0481E0DF91CF9135
:1013D0001F910F91FF90EF90DF90CF90BF90AF9053
:1013E0009F907F906F90089590E080E0C5CF089522
:1013F000FF920F931F93CF93DF93F82E092F162F91
:10140000D72FC42F222349F081E080933D010E9411
:101410001A1790933C0180933B0180913D018823F2
:10142000A1F080913B0190913C010E942617069704
:1014300060F0EF2DF02FA12FBD2F90E080E0D0E0E5
:101440008C179D0744F010923D01DF91CF911F91C1
:101450000F91FF900895219131912D933D93019625
:10146000EFCF90934301809342010895E0914201B0
:10147000F0914301309721F00190F081E02D099423
:1014800080E00895E0914201F0914301309721F00E
:101490000280F381E02D09940895E0914201F091DA
:1014A0004301309721F00480F581E02D09940895DF
:1014B00020914001309141012817390771F0909334
:1014C000410180934001E0914201F0914301309746
:1014D00021F00680F781E02D0994089520913E01C6
:1014E00030913F012817390771F090933F018093A5
:1014F0003E01E0914201F0914301309721F00084D8
:10150000F185E02D09940895089508950C94840AB6
:1015100008950C94880A0E94850A0C94860A81E03A
:1015200008950E9411170E9405090E9492170C94B9
:10153000890A5F926F927F928F929F92AF92BF9231
:10154000CF92DF92EF92FF920F931F93CF93DF938F
:10155000CDB7DEB72A970FB6F894DEBF0FBECDBF6A
:101560000E9464090E948F0A882309F47AC095E4D6
:10157000A92E91E0B92E10E000E088248394912CEC
:10158000502E802F0E94FB087C01F501C190D19064
:101590005F01C816D90609F45EC08091B90181FDCA
:1015A0000E94040990E080E0CE24DF243401082E5C
:1015B00002C0660C771C0A94E2F7960126213721B7
:1015C000232B09F443C08E835F82E620F72081E05D
:1015D000EF2809F480E088870E941A178160782F2D
:1015E0009A8789874E815F8168858A850E94580B1A
:1015F000000F111FF801EB5BFE4F8081918168267F
:101600007926718260820E9425190E94360A909183
:1016100044018917B9F10E94360A809344012A9641
:101620000FB6F894DEBF0FBECDBFDF91CF911F91F3
:101630000F91FF90EF90DF90CF90BF90AF909F9071
:101640008F907F906F905F900C94000501968C3086
:10165000910509F0ABCF0F5F1F4F0430110509F062
:101660008FCF8FEF89838A831B820E941A17816034
:10167000782F9D838C8349815A816B818D810E9453
:10168000580BC1CF2A960FB6F894DEBF0FBECDBF60
:10169000DF91CF911F910F91FF90EF90DF90CF904E
:1016A000BF90AF909F908F907F906F905F900895C4
:1016B000CF93DF93CDB7DEB72B970FB6F894DEBF8D
:1016C0000FBECDBF4F83588769877A878B871E826D
:1016D0001D8285E0FE013796DE01119601900D9284
:1016E0008A95E1F749815A816B817C818D819E8148
:1016F0002B960FB6F894DEBF0FBECDBFDF91CF9112
:101700000C948412FC01808191810C944D158823E6
:1017100009F405C18238B9F40E94360A81FDFFC080
:1017200089E30E947B150E94EF152FEF81EE94E074
:10173000215080409040E1F700C0000089E30E9402
:1017400082150C94EF158338A1F40E94360A80FDAF
:10175000E6C083E50E947B150E94EF152FEF81EE16
:1017600094E0215080409040E1F700C0000083E504
:10177000E6CF8438A1F40E94360A82FDD0C087E407
:101780000E947B150E94EF152FEF81EE94E021500F
:1017900080409040E1F700C0000087E4D0CF9CEF8C
:1017A000980F913A18F40E947B15CBCF90E2980FD6
:1017B000983050F4877091E001C0990F8A95EAF74C
:1017C000892F0E94A315BDCF9BE5980F933070F42D
:1017D000853A31F0863A39F083E890E00C94580A63
:1017E00081E890E0FBCF82E890E0F8CF98E5980F91
:1017F000973108F08EC0883A09F446C0893A09F456
:1018000046C08A3A09F446C08B3A09F446C08C3A7D
:1018100009F446C08B3B09F446C08C3B09F446C032
:101820008D3A09F446C0803B09F446C08E3A09F46B
:1018300046C08F3A09F446C0813B09F446C0823B5A
:1018400009F446C0833B09F446C0843B09F446C012
:10185000853B09F446C0863B09F446C0873B09F442
:1018600046C0883B09F446C0893B09F446C08D3B1D
:1018700009F446C08E3B09F446C08A3B09F446C0D1
:1018800090E080E00C946E0A82EE90E0FBCF89EE4F
:1018900090E0F8CF8AEE90E0F5CF85EB90E0F2CFC4
:1018A00086EB90E0EFCF83EB90E0ECCF84EB90E021
:1018B000E9CF87EB90E0E6CF8CEC90E0E3CF8DECC6
:1018C00090E0E0CF83E891E0DDCF8AE891E0DACFE5
:1018D00082E991E0D7CF84E991E0D4CF81E292E030
:1018E000D1CF83E292E0CECF84E292E0CBCF85E20B
:1018F00092E0C8CF86E292E0C5CF87E292E0C2CF05
:101900008FE690E0BFCF80E790E0BCCF8AE292E024
:10191000B9CF803F20F00E942E180C941A19089518
:10192000882309F452C0823871F40E94360A81FF7C
:101930004CC089E30E947B150E94EF1589E30E9449
:1019400082150C94EF15833859F40E94360A80FFF3
:101950003CC083E50E947B150E94EF1583E5EFCF25
:10196000843859F40E94360A82FF2FC087E40E940F
:101970007B150E94EF1587E4E2CF9CEF980F913A18
:10198000F0F290E2980F983050F4877091E001C027
:10199000990F8A95EAF7892F0E94A915D2CF9BE566
:1019A000980F933020F490E080E00C94580A98E56A
:1019B000980F973120F490E080E00C946E0A803FFD
:1019C00020F00E9496180C941A190895882321F08B
:1019D0000E94A3150C94EF150895882321F00E940E
:1019E000A9150C94EF1508958F929F92AF92BF9214
:1019F000DF92EF92FF920F931F93CF93DF937C01BF
:101A0000D62FC72FFC01058102950F70128111118D
:101A10000E94C2150E949915D82E882371F01123B7
:101A200031F180E28D0F883010F182E00E943A1689
:101A30000E94991591E0D82ED926BC2EB2949FE031
:101A4000B922EB2DF0E0E95DF24F0C949B1C390DAF
:101A5000390D890D890DD00DF80DD70DD70D3A0E22
:101A6000D70DD50ED50E5F0FD70DD70D680FD12C22
:101A7000E4CF0C2F0F70C07F11F00295007F11236F
:101A8000A9F0002359F080E28D0F883010F0D111B9
:101A900009C0802F0E94A3150E94EF158D2F0E9470
:101AA000870B14C0802F0E94B415F6CF8D2F0E9493
:101AB000900C002359F080E28D0F883010F0D11186
:101AC00024C0802F0E94A9150E94EF15DD2009F483
:101AD00006C20E94951580FD02C2F70112820E9483
:101AE0008F150E941514C7010E947B0F0E948F154D
:101AF000DF91CF911F910F91FF90EF90DF90BF90FA
:101B0000AF909F908F900C943614802F0E94BA153E
:101B1000DBCFFC2FFF70BF2EC07FC03219F0B29414
:101B200080EFB822DD2369F0D13049F1112391F122
:101B3000002351F1F701858180FFB0CF8F7085833D
:101B400023C0112381F0011106C00E94D6158B29F4
:101B50000E94E60CBBCF0130C1F70E94D6158B293D
:101B60000E94DC15B3CF011106C00E94E5158B2D34
:101B70000E94ED0CABCF013009F4A8CFF6CF1123B2
:101B800029F0063008F0A2CF8B2DE2CF053008F007
:101B90009DCFEDCF002359F38D2F0E94900C96CF4F
:101BA0008C2F86958695837079F08130B9F098E016
:101BB000B91609F49BC0B91608F488CF86EF8B0DCF
:101BC000823008F493C082CF8D2F9C2F9370111117
:101BD00002C090E080E00E94580A78CF8D2F9C2FA1
:101BE0009370111102C090E080E00E946E0A6ECFE7
:101BF000112309F1D53F99F0D63FB9F0D43F49F40C
:101C0000809157029091580281609093580280937E
:101C100057028D2F0E942E180E941A1957CF8091BB
:101C20005702909158028260F0CF809157029091B4
:101C300058028460EACFD53F89F0D63FA9F0D43F5F
:101C400049F480915702909158028E7F90935802E8
:101C5000809357028D2F0E949618DECF80915702F5
:101C6000909158028D7FF2CF809157029091580247
:101C70008B7FECCF8C2F837009F04BC0111136C0D5
:101C80002D2F229526952770220F220F6D2F6F7012
:101C9000862E912CB12CA12C022E04C0880C991CEC
:101CA000AA1CBB1C0A94D2F760E070E0CB01D4FF01
:101CB0000FC06FE070E080E090E004C0660F771F17
:101CC000881F991F2A95D2F76095709580959095F9
:101CD000C695C695C370C23071F0A0F46829792901
:101CE0008A299B29C13091F00E94C9130E94360AAB
:101CF0000E940005EBCE682979298A299B290E9438
:101D0000DB13F4CF0E94C913C501B4010E94B713BD
:101D1000EDCF8695112311F08C2F8170882331F33C
:101D20002D2F229526952770220F220F6D2F6F7071
:101D3000862E912CB12CA12C022E04C0880C991C4B
:101D4000AA1CBB1C0A94D2F760E070E0CB01D4FF60
:101D50000FC06FE070E080E090E004C0660F771F76
:101D6000881F991F2A95D2F7609570958095909558
:101D7000C695C695C370C23051F080F468297929A0
:101D80008A299B29C13071F00E948C14AFCF682939
:101D900079298A299B290E949E14A8CF0E948C141D
:101DA000C501B4010E947A14A1CFE0E2ED0FE53144
:101DB00008F066C0F0E0E152F14F0C949B1CF40E69
:101DC000F40EF40EF40EF40EF40EF40EF40EF40E03
:101DD000F40EF40EF40EF40EF40EF40EF40E050FE1
:101DE000130F1A0F210F2B0FDF708C2F8F71112300
:101DF00031F00E9415148D2F0E94E60CD8CE0E945F
:101E000036148D2F0E94ED0CD2CE112341F00530F7
:101E100008F0CDCE8C2F8F710E945914C8CE063099
:101E200008F0C5CEF7CF8C2F8F71112339F00E94A7
:101E30001514BDCE8C2F8F711123C9F30E94361457
:101E4000B6CE112329F08C2F8F710E940014AFCED3
:101E50000E94FB13ACCE112349F0CF718C2F0E944E
:101E6000151463E08C2F0E942516A1CE81E00E94FC
:101E70003A16023008F49BCE82E00E943A1697CEC2
:101E8000112349F0002321F08D2F0E94870B8FCE64
:101E90008C2F8F71CCCF002379F0D93349F4FFEF29
:101EA00027EE83E0F15020408040E1F700C00000C1
:101EB0008D2F0E94900C7BCE8C2F8F71BFCF4C2F1B
:101EC0004F706D2FC7010E947A060E942D13FECD20
:101ED0004C2F4F706D2FC7010E947D06F7CDDF910B
:101EE000CF911F910F91FF90EF90DF90BF90AF9037
:101EF0009F908F9008950F931F93CF93DF93EC01E2
:101F0000988189812B813C81232B39F08F3F19F4F3
:101F100081E09F3F19F080E001C081E080FD17C0A3
:101F2000CE010E941205882391F0688179818A810F
:101F30000E9457158C010E94B0140E94B413B8017E
:101F4000CE01DF91CF911F910F910C94F40CDF9192
:101F5000CF911F910F9108950E94C2150E94D31531
:101F60000E94EF150E94B0190E941A1990E080E0BB
:101F70000E94580A90E080E00C946E0A0E94891535
:101F80000C94AC0F0E94B1150C94BE0FE92FE29592
:101F9000EF70E250EE30E0F4F0E0EF52F04F0C94CE
:101FA0009B1CDF0FDF0FE80FE80FEA0FE80FE80FC9
:101FB000E80FDF0FDF0FEF0FE80FE80FEF0F803FA5
:101FC00019F020F4803E20F481E00895843FE1F38D
:101FD00080E00895803EC0F3813FD1F7F5CF93FBB9
:101FE000882780F908950E944D150C94C60FCF9351
:101FF000DF9300D000D01F92CDB7DEB70F900F90C7
:102000000F900F900F90DF91CF910895CF93DF93B2
:1020100000D000D000D0CDB7DEB726960FB6F8942A
:10202000DEBF0FBECDBFDF91CF9108951F93CF9339
:10203000DF93C0914E0116E080914F018C1304C0D4
:10204000DF91CF911F910895D0E01C9FF0011D9F5B
:10205000F00D1124E05BFE4F40815181628173815C
:10206000848195810E9406102196C770E5CF40912A
:102070008001509181016091820170918301809172
:102080008401909185010C9406101F93CF93DF93E8
:1020900080918501807FD1F4809182018823B1F005
:1020A00080914E01D0914F01B0918001C09181018A
:1020B0004091830150918401A1E0BF3F09F0A0E06D
:1020C000BA016095709516E0D81304C0DF91CF91E6
:1020D0001F91089521E04115510521F02A2FCF3F8E
:1020E00009F020E090E020FD38C0189FF001199F12
:1020F000F00D1124E05BFE4F21812C132EC02081B6
:102100002B132BC02281211128C023813481241755
:10211000350700F1241B350B283C3105F0F42091E4
:1021200085012F7020612093850126E0289FF00112
:10213000299FF00D1124EB5AFE4F80818F70806132
:10214000808380E891E00E947B0FDF91CF911F9107
:102150000C941610260F371FDFCF01968770B4CF6F
:10216000AF92BF92CF92DF92EF92FF920F931F93A5
:10217000CF93DF93CDB7DEB761970FB6F894DEBF8C
:102180000FBECDBF8C0185E0F801DE011D960190E8
:102190000D928A95E1F7D8014C9111965C911197B7
:1021A0001296EC90309180016091810180918301C1
:1021B0009091840121E0009731F06F3F19F421E004
:1021C0003F3F09F020E0B22FB170BB2E20FD80C14F
:1021D000F801C380D480A0908201AA2009F427C10D
:1021E000C816D906D0F1D601A81BB90BCD01FF2422
:1021F000F394883C910508F0F12C80918501982F8B
:10220000907FFF2009F4CEC0911187C0FE2C65138A
:1022100029C0341327C0E11025C08F7080618093DE
:1022200085010E94371080E891E00E947B0F809129
:102230008501F80185838F2D61960FB6F894DEBF76
:102240000FBECDBFDF91CF911F910F91FF90EF9007
:10225000DF90CF90BF90AF900895809590958C0DB2
:102260009D1DC5CF81E0CD2831F05F3F19F481E09D
:102270004F3F09F080E080FD24C081E08E25F82FDB
:10228000F170DF2E80FF3FC080914E0120914F0101
:1022900036E0821318C04D875E878D859E850E942B
:1022A0004D15292F22952F70223008F1243030F55A
:1022B0009F7009F1D80115969C91907FE1F4FB2C59
:1022C000BACF80E0DCCF90E0389FF001399FF00D6D
:1022D0001124E05BFE4F6181561306C060814613F6
:1022E00003C062816E110FC001968770D2CF9F70BC
:1022F00011F0882321F3805E883008F3C8010E9422
:102300007B0FBD2CDCCFEE2009F495CF80918501A9
:10231000816080938501F12C8ECF651314C0341336
:1023200012C0E11010C0F8018583C8010E947B0F24
:1023300086E0F801A0E8B1E001900D928A95E1F7FE
:102340000E94371078CF4D875E878D859E850E94CD
:10235000F30F882319F1EE2009F180918501803275
:1023600070F0209180013091810138872F83198688
:10237000DB86CA868C87CE0107960E947B0F86E09B
:10238000F801A0E8B1E001900D928A95E1F70E9472
:1023900045100E943710FF24F3944DCFC8010E94CE
:1023A0007B0FF9CF911113C07C2DD98AC88A6E2D6D
:1023B00089890E94F70F80E891E00E947B0F86E0F8
:1023C000E0E8F1E0DF011D928A95E9F7B9CF6513E6
:1023D00012C0341310C0E1100EC0F8018583C8018B
:1023E0000E947B0FE0E8F1E086E0DF011D928A9514
:1023F000E9F7FA2C20CF4D875E878D859E850E9458
:10240000F30F882359F2EE2049F280918501803242
:1024100008F4B5CF20918001309181013A8329835E
:102420001B82DD82CC828E83CE010196A6CFC81698
:10243000D90638F1F601E81BF90BCF01F12C883CE5
:10244000910508F03DC0FE2CEE2009F4A7CF6513DE
:1024500026C0341324C08091850180FD17C0982FB9
:10246000907FA1F0D80115968C931597903F09F4B1
:102470005CCF982F907F905F8F70892B15968C93EF
:1024800054CF809590958C0D9D1DD8CF86E0F80196
:10249000A0E8B1E001900D928A95E1F7CCCE4D878E
:1024A0005E878D859E850E94F30F811168CF809194
:1024B0008501816080938501C8010E947B0FBBCE9E
:1024C0007C2DD98AC88A6E2D89890E94F70F77CF13
:1024D000EE2009F463CF4D875E878D859E850E942F
:1024E000F30FF82E882309F459CF86E0F801A0E80D
:1024F000B1E001900D928A95E1F780E891E00E94A9
:10250000820B0E9445101CCF1F93CF93DF93CDB752
:10251000DEB72C970FB6F894DEBF0FBECDBF4F834A
:10252000588769877A878B879C87CE0107960E9498
:10253000B010882309F442C09F8188852A853B8595
:10254000232B39F08F3F19F481E09F3F19F080E091
:1025500001C081E080FD08C04F81588569857A857A
:102560008B859C850E94061016E080914E0190910B
:102570004F01891709F467C0819FC0011124805B56
:102580009E4F0E94B010882309F45DC0E0914E0177
:102590001E9FF0011124E05BFE4F4081518162815A
:1025A0007381848195810E94061080914E0190E094
:1025B00001968770992780934E01D7CF86E0FE0160
:1025C0003796DE01119601900D928A95E1F79F8171
:1025D00088852A853B85232B39F08F3F19F481E0CC
:1025E0009F3F19F080E001C081E080FDBDCF2091C8
:1025F0004F0130E0C90101968770992740914E0143
:102600004817190699F096E0929FD001939FB00D5C
:102610001124A05BBE4FFE01319601900D929A9558
:10262000E1F780934F010E9416109ECF0E94C20FC7
:1026300010924F0110924E0186E0E0E8F1E0DF01D8
:102640001D928A95E9F72C960FB6F894DEBF0FBE5F
:10265000CDBFDF91CF911F910895EF92FF920F931D
:102660001F93CF93DF938C01892B81F0F12CEE2403
:10267000E394E8012196F8018491843770F4843062
:1026800008F05FC08130B1F08230A1F1DF91CF91CD
:102690001F910F91FF90EF900895853709F44CC07A
:1026A00008F43DC09CE7980F903780F78F770E9421
:1026B000900C49C00E5F1F4FFE01849190E2980F6D
:1026C000983060F48770FE2D01C0FF0F8A95EAF7FD
:1026D0008F2F0E94C5150E94EF1502C00E94870B24
:1026E0008F2D815030F2EFE9FFE03197F1F700C014
:1026F0000000F7CF0E5F1F4FFE01849190E2980F0C
:10270000983050F48770FE2D01C0FF0F8A95EAF7CC
:102710008F2F0E94CB15DFCF0E94900CE1CF0E5F70
:102720001F4FFE01C491C150D8F28FE99FE001977D
:10273000F1F700C00000F7CF0E5F1F4FFE01F490CD
:10274000CFCF0E94870B8E01CBCF08950C94A51399
:102750000E94A6136093A8017093A9018093AA0117
:102760009093AB010C94AC0F08950C94A8130F93A5
:102770001F930091A8011091A9012091AA01309105
:10278000AB01602B712B822B932B1F910F910C941B
:10279000A8130F931F930091A8011091A9012091F4
:1027A000AA013091AB0160237123822393231F91EF
:1027B0000F910C94A8130F931F930091A8011091EF
:1027C000A9012091AA013091AB01602771278227CE
:1027D00093271F910F910C94A8130C94FA030E9455
:1027E000ED136093A4017093A5018093A6019093CB
:1027F000A7010C94AC0F60E070E0CB010C94EF13D8
:102800000F931F9341E050E060E070E08A019B016C
:1028100004C0000F111F221F331F8A95D2F7C90170
:10282000B8011F910F910C94EF130F931F9341E088
:1028300050E060E070E004C0440F551F661F771F32
:102840008A95D2F78091A4019091A501A091A6014B
:10285000B091A7018A019B01082B192B2A2B3B2B36
:10286000C901B8011F910F910C94EF130F931F939F
:1028700041E050E060E070E004C0440F551F661F67
:10288000771F8A95D2F7CB01BA0160957095809534
:1028900090950091A4011091A5012091A60130917D
:1028A000A70160237123822393231F910F910C941E
:1028B000EF130F931F9341E050E060E070E004C01D
:1028C000440F551F661F771F8A95D2F78091A40188
:1028D0009091A501A091A601B091A7018A019B0149
:1028E000082719272A273B27C901B8011F910F91F3
:1028F0000C94EF130F931F930091A4011091A50165
:102900002091A6013091A701602B712B822B932B74
:102910001F910F910C94EF130F931F930091A4013B
:102920001091A5012091A6013091A7016023712388
:10293000822393231F910F910C94EF130F931F93F6
:102940000091A4011091A5012091A6013091A70149
:1029500060277127822793271F910F910C94EF1303
:1029600008952CE0929F800D1124982F977071E0AC
:1029700001C0770F9A95EAF786958695869525E0AA
:10298000829FC001112450E040E0A62FB0E0FC017E
:10299000E40FF51FEA57FE4F60819D01042E02C02F
:1029A000369527950A94E2F721702195262727234B
:1029B000262720834F5F5F4F4530510541F708952B
:1029C0002CE0929F800D1124982F97708695869504
:1029D000869525E0829FA001112470E060E080E0F0
:1029E000FA01E60FF71FEA57FE4F208130E0092E6B
:1029F00002C0369527950A94E2F721703327062EF8
:102A000001C0220F0A94EAF7822B6F5F7F4F653077
:102A1000710531F70895BF92CF92DF92EF92FF9246
:102A20000F931F93CF93DF938C01C090A401D0909C
:102A3000A501E090A601F090A7018091A8019091D6
:102A4000A901A091AA01B091AB01C82AD92AEA2A0A
:102A5000FB2ACFE1D0E0BC2ED701C6010C2E04C06A
:102A6000B695A795979587950A94D2F780FD0EC0E5
:102A7000219788F7B12C8B2DDF91CF911F910F916A
:102A8000FF90EF90DF90CF90BF900895B8018C2F0A
:102A90000E949A06019761F3EECFCF93DF93EC018A
:102AA0000E940B15BE01DF91CF910C949A061F93E3
:102AB000CF93DF93EB0190914D01992331F0CB013E
:102AC000DF91CF911F910C944D15882379F0CB01A4
:102AD0000E940B15182F682FCE010E94B114BE0161
:102AE000812FDF91CF911F910C949A06CB010E9408
:102AF000E014182FF4CF682F80910001909101010C
:102B00000C940617682F80910001909101010C949C
:102B1000081780910001909101010C940A1780918F
:102B2000AC0185958595859508958091AC01877058
:102B300008959091AC01977081E009F480E00895C8
:102B40008091B80108959091B801892B8093B801C4
:102B50000895982F90958091B80189238093B801AA
:102B600008951092B80108959091B701892B809330
:102B7000B7010895982F90958091B701892380938C
:102B8000B70108951092B70108959091B601892B6D
:102B90008093B6010895982F90958091B60189236E
:102BA0008093B60108951092B60108958091AD0109
:102BB000089508950C94D9159091AD01981721F0BE
:102BC0008093AD010C94DA1508958091AD018823AE
:102BD00029F01092AD0180E00C94DA150895E0918F
:102BE0000001F09101018091B8018083E091000122
:102BF000F091010180819091B701892B8083E09150
:102C00000001F091010180819091B601892B8083B0
:102C10009091AD01992381F0E0910001F0910101C3
:102C20008081892B808380910001909101010E9415
:102C3000D31681110E94E515809100019091010148
:102C40000C94420A08950C94221698E0899F9001F2
:102C50001124622B6093AC010E9415148091AC0189
:102C60008595859585950C9423161092AC0180E08E
:102C70000C9423169091AC01809589238093AC012C
:102C8000282F277071F4282F082E000C330B921771
:102C9000130639F08595859585950E9436140C9418
:102CA0003516089590E080E00E94BD1C21E08D3E25
:102CB0009E4F09F020E0822F089582E090E00C946E
:102CC000B51C83E090E00C94B51C682F83E090E085
:102CD0000C94C31C84E090E00C94B51C682F84E035
:102CE00090E00C94C31CAB01BC018FE090E00C940D
:102CF000D51CAB01BC0183E190E00C94D51C60E0D5
:102D000070E0CB010C94791660E070E0CB010E947A
:102D100073160C947F166DEE7EEF90E080E00E94BB
:102D2000E11C60E082E090E00E94C31C60E083E070
:102D300090E00E94C31C1092A8011092A901109269
:102D4000AA011092AB0160E084E090E00E94C31CF5
:102D500060E085E090E00E94C31C60E086E090E0C7
:102D60000E94C31C6FEF87E090E00E94C31C40E00C
:102D700050E0BA0188E090E00E94D51C60E08DE050
:102D800090E00E94C31C40E050E0BA0188E190E06E
:102D90000E94D51C60E087E190E00E94C31C0C9467
:102DA00084160C948B16FC01329697E080E09150CB
:102DB00009F4089521912223D1F38F5FF8CF9C016C
:102DC000FC0132969FEF80E04191461751F09F3F02
:102DD00019F4411101C0982F8F5F8630A9F79F3FEA
:102DE00009F40895290F311D97FD3A95F901628381
:102DF0000895FC01329608962191261303C0DF0145
:102E000011971C92E817F907B9F708950C94DF168B
:102E10000C94F916029626E0FC0111922A95E9F726
:102E2000089582E084BD93E095BD9AEF97BD8093AD
:102E30006E0008952FB7F8948091590290915A022C
:102E4000A0915B02B0915C022FBF0895CF92DF92F8
:102E5000EF92FF920F931F932FB7F894409159026E
:102E600050915A0260915B0270915C022FBF6A011F
:102E70007B01EE24FF248C0130E020E0C016D10657
:102E8000E206F30650F0481B590BCA011F910F913F
:102E9000FF90EF90DF90CF90089541505109F3CF0C
:102EA00078941F920F920FB60F9211248F939F93D5
:102EB000AF93BF938091590290915A02A0915B0207
:102EC000B0915C020196A11DB11D809359029093AF
:102ED0005A02A0935B02B0935C02BF91AF919F91A5
:102EE0008F910F900FBE0F901F90189589E0E3E02F
:102EF000F0E080935700E49187E090EBDC01809351
:102F0000A3029093A402A093A502B093A60288E125
:102F10009CE00FB6F894A895809360000FBE909344
:102F20006000FFCF0E945216811102C00E94D1168C
:102F30000E945D168093B9010E946A1690E09093FA
:102F4000600280935F020E946116682F70E090E03B
:102F500080E00C94B5138091BD0180FF12C0609198
:102F6000050185E0689FB0011124759567957595F9
:102F7000679560387105A8F561157105A1F1862F77
:102F8000089581FF09C06091050185E0689FB00147
:102F9000112475956795EDCF82FF07C060910501FB
:102FA00085E0689FB0011124E4CF2091BC01222369
:102FB000A9F0909104016091050185E0689FB0013E
:102FC00011242917B0F6269FA001279F500D112428
:102FD000692F70E0CA010E94871CCBCF65E070E0CA
:102FE000CECF8FE7089581E008958091BD0180FFE5
:102FF0000CC06091030170E07595679575956795B4
:103000006115710549F1862F089581FF06C0609111
:10301000030170E075956795F3CF6091030182FD20
:103020000BC09091BC019923A1F0609102018091A5
:103030000301961738F0682F70E06038710500F3CF
:103040008FE70895899FC001112470E00E94871CBA
:10305000F4CF61E070E0D7CF81E00895803F31F494
:103060000E94AB1781958093C0010895813F19F4A8
:103070000E94AB17F8CF823F31F40E94AB178195C5
:103080008093BF010895833F19F40E94AB17F8CFD6
:10309000893F29F40E94F5178093C10108958A3F62
:1030A00021F40E94F5178195F7CF8B3F31F40E94F0
:1030B000F51781958093C20108958C3F19F40E9401
:1030C000F517F8CF843F31F48091BE018160809381
:1030D000BE010895853F21F48091BE018260F7CF43
:1030E000863F21F48091BE018460F1CF873F21F4B7
:1030F0008091BE018860EBCF883F21F48091BE01B2
:103100008061E5CF8D3F31F48091BD018160809376
:10311000BD0108958E3F21F48091BD018260F7CFFB
:103120008F3FB9F78091BD018460F1CF803FC1F43A
:103130008091C00187FD1092C0018091BF01811173
:103140000EC08091C00181110AC08091C10181111E
:1031500006C08091C201811102C01092BC01089585
:10316000813F29F48091C00118162CF3E6CF90918D
:10317000BF01823F29F497FFE0CF1092BF01DDCF5E
:10318000833F19F41916CCF3D8CF893F39F48091D5
:10319000C101181694F61092C101CFCF8A3F29F4CD
:1031A0008091C10187FFC9CFF6CF8B3F39F4809161
:1031B000C20187FFC2CF1092C201BFCF8C3F29F45A
:1031C0008091C2011816BCF3B8CF843F31F48091CE
:1031D000BE018E7F8093BE01B0CF853F21F48091E8
:1031E000BE018D7FF7CF863F21F48091BE018B7F9A
:1031F000F1CF873F21F48091BE01877FEBCF883FDD
:1032000021F48091BE018F7EE5CF8D3F31F4809116
:10321000BD018E7F8093BD0190CF8E3F21F48091C0
:10322000BD018D7FF7CF8F3F09F087CF8091BD0122
:103230008B7FF0CF8EEB91E00E944D0A0E941A170F
:103240009093BB018093BA0108951F93CF93DF93AE
:103250008091BA019091BB010E942617AC01909118
:10326000BC012091060130E0911106C020910701B8
:103270008AE0289F900111244217530780F0809123
:10328000BF011091C001D091C101C091C201811153
:103290000AC0111161C0D1115FC0C1115DC0DF91C1
:1032A000CF911F9108959F3F19F09F5F9093BC01AC
:1032B000181624F40E94AB178093BF018091BF01C0
:1032C00087FF05C00E94AB1781958093BF0111163F
:1032D00024F40E94AB178093C0018091C00187FF46
:1032E00005C00E94AB1781958093C0014091BF013A
:1032F000442379F03091C001332359F025EB420388
:10330000A00111245093BF01320390011124309386
:10331000C0011D1624F40E94F5178093C10180910D
:10332000C10187FF05C00E94F51781958093C101F7
:103330001C1624F40E94F5178093C2018091C201EB
:1033400087FF05C00E94F51781958093C201DF9128
:10335000CF911F910C941A199F3F09F0A6CFB7CFB8
:1033600085E0EEEBF1E0DF011D928A95E9F710921E
:10337000BC011092BD01089580E880936100109215
:1033800061000E948B0A0E94910A0E94A11A0E9469
:10339000310A0E94741C539A80E0815081F4539842
:1033A00078940E945A1B80918002882329F0809192
:1033B0006C0284FD0E94990A0E94551AF2CFA895CA
:1033C000EFE9FFE03197F1F700C00000E6CF809110
:1033D00055020895CF93DF9300D01F92CDB7DEB78B
:1033E0002091C5013091C6012817390789F09093C3
:1033F000C6018093C50124E029839B838A83809141
:10340000970284FF05C063E0CE0101960E94561B1F
:103410000F900F900F90DF91CF910895CF93DF938E
:1034200000D01F92CDB7DEB72091C3013091C40107
:103430002817390789F09093C4018093C30123E0D2
:1034400029839B838A838091970284FF05C063E070
:10345000CE0101960E94561B0F900F900F90DF91A6
:10346000CF910895CF93DF9300D000D000D0CDB797
:10347000DEB7FC0182E0898395E0DE0112960190BF
:103480000D929A95E1F78091970284FF05C066E05E
:10349000CE0101960E94561B26960FB6F894DEBF09
:1034A0000FBECDBFDF91CF910895CF93DF93CAE0D8
:1034B000D0E080916C0284FF1AC08091D20190917B
:1034C000D301981789F028E0829FC001112468E099
:1034D0008C529E4F0E94521B8091D20190E0019627
:1034E0008F7099278093D201DF91CF9108950E9428
:1034F0005A1B8FE99FE00197F1F700C00000219768
:10350000C1F6F2CFFC01A091D301B0E09D012F5F85
:103510003F4F2F7033278091D201821771F083E0E3
:10352000AA0FBB1F8A95E1F7AC52BE4F98E00190FD
:103530000D929A95E1F72093D3010E945A1B0C94A7
:10354000551A88E091E00895FC01808180768032F0
:10355000D1F48181813041F48AEC91E090937C0236
:1035600080937B0288E00895823041F484E592E004
:1035700090937C0280937B0281E008958A3029F445
:1035800083818093540280E008958930E1F782813D
:1035900093818115924069F484819581892B49F446
:1035A00082E08093C901868197819093C8018093BE
:1035B000C7018FEF0895FC018091C7019091C80168
:1035C000892B99F09091C901913059F0923069F4AA
:1035D0008081809355021092C8011092C70181E04A
:1035E0000895539A0E947617FACF8FEF0895FC0141
:1035F0008381813261F08232E1F0823069F488E6C1
:1036000093E090937C0280937B028BE30895828108
:10361000882321F0813051F080E008958AE793E01B
:1036200090937C0280937B0289E0089583E993E084
:10363000F7CF84819581009751F0019769F783EA6C
:1036400093E090937C0280937B0284E8089587E264
:1036500094E090937C0280937B0280E408951F9312
:10366000CF93DF93162FEA01288124FF18C0298108
:1036700038E823272983FC019E012E5F3F4FD901A3
:10368000912F81918D939150E1F7612FC9010E9493
:10369000C2021C5F1883DF91CF911F9108952AE524
:1036A0002883E9CF4CE652E00C942F1B47E952E007
:1036B0000C942F1BCF93DF9360917D02635067FDC5
:1036C0002BC080917A02CCE0D0E0C81BD109CF5743
:1036D000DD4F809179028D3209F0EAC06830D1F473
:1036E00083EC809361028AE5809313011092560265
:1036F0008881807609F45EC0CE010E94A41A8F3FB3
:1037000009F067C0988197FD8E8190E890935602EA
:103710008093120110927D028091130184FF3DC0BD
:10372000809112018F3FC9F1C82F893008F0C8E09D
:10373000982F9C1B909312019091610228E8922788
:10374000909361028823E1F040917B0250917C02CA
:103750008091560286FFBFC0A2E6B2E0FA019C2F1C
:1037600084918D9331969150D9F72FEF2C0F30E043
:103770002F5F3F4F240F351F30937C0220937B0235
:103780006C2F82E692E00E94C202CC5FCC3019F02E
:103790008FEF80931201C093130184E199B19C7063
:1037A00031F48150D9F710927E0210927802DF91A5
:1037B000CF9108952A8110926A029981911112C0C5
:1037C00010926B022AE632E082E030937C02209372
:1037D0007B029F8191119CCF9E81981708F098CF12
:1037E000892F96CF953029F420937E022AE632E085
:1037F000ECCF963009F043C09B81913059F487E6B5
:1038000094E090937C0280937B0282E190E4909319
:10381000560275CF923021F4CE010E94F71AF6CFEE
:10382000933041F5211108C08FEB94E090937C0216
:1038300080937B0284E0EACF213041F489EA94E06E
:1038400090937C0280937B0286E1E0CF223041F4AA
:103850008DE994E090937C0280937B028CE0D6CF3C
:103860002330A1F689E794E090937C0280937B0259
:1038700084E2CCCF913281F2923241F6CDCF9830B2
:1038800081F0993019F420938002B0CF9A3069F01A
:103890009B3009F0ABCF9BE490936D02909398021C
:1038A000A5CF20E832E081E090CF2AE632E0FBCFDE
:1038B0008091560287FF2ECFCE010E94DB1A8F3FE8
:1038C00021F48EE18093130125CF882309F422CFC0
:1038D000109212011FCFDA01E2E6F2E09C2F8D91E7
:1038E00081939150E1F741CFE9E6F0E08081826079
:1038F0008083E89AACE6B2E08BE411968C93119742
:10390000E7E9F2E081838AE58C938083089597FB51
:10391000072E16F4009407D077FD09D00E94A11C51
:1039200007FC05D03EF4909581959F4F08957095C2
:1039300061957F4F0895EE0FFF1F0590F491E02DE4
:103940000994AA1BBB1B51E107C0AA1FBB1FA617E6
:10395000B70710F0A61BB70B881F991F5A95A9F738
:1039600080959095BC01CD010895F999FECF92BD47
:1039700081BDF89A992780B50895A8E1B0E042E0AA
:1039800050E00C94E91C262FF999FECF92BD81BD21
:10399000F89A019700B4021639F01FBA20BD0FB68D
:1039A000F894FA9AF99A0FBE08950396272F0E9469
:1039B000C41C0E94C31C252F0E94C41C242F0C94DD
:1039C000C41C0196272F0E94C41C0C94C31CDC014C
:1039D000CB01FC01F999FECF06C0F2BDE1BDF89A1A
:1039E000319600B40D9241505040B8F70895F894C4
:0239F000FFCF07
:1039F200AE012808140A321EE719821A321A0E1A68
:103A0200EA19FF5A3097969532316061626391905C
:043A12003435339480
:00000001FF
