:100000000C9462020C94C6020C94AB020C94AB02EA
:100010000C94AB020C94AB020C94AB020C94AB02AC
:100020000C94AB020C94AB020C94AB020C94AB029C
:100030000C94AB020C94AB020C9469180C94AB02B8
:100040000C94AB020C94AB020C94AB020C94AB027C
:100050000C94AB020C94AB020C94AB020C94AB026C
:100060000C94AB020C94AB022B0014001A00080095
:10007000150017001C0018000C00120013002A00C5
:10008000290004001600070009000A000B000D00FB
:100090000E000F003300340039621D001B00060003
:1000A0001900050011001000360037003800280044
:1000B0000751E000E200E30003512C00010004516D
:1000C0005000510052004F002B0014001A0009008C
:1000D00013000A000D000F0018001C0033002A0056
:1000E0002900040015001600170007000B0011007E
:1000F00008000C001200340039621D001B000600CD
:10010000190005000E0010003600370038002800E6
:100110000751E000E200E30003512C00010004510C
:100120005000510052004F002B00340036003700C1
:1001300013001C0009000A00060015000F002A0029
:10014000290004001200080018000C0007000B0032
:1001500017001100160038003962330014000D003A
:100160000E001B00050010001A0019001D002800D9
:100170000751E000E200E30003512C0001000451AC
:100180005000510052004F0035021E021F02200293
:1001900021022202230224022502260227022A002B
:1001A0004C003A003B003C003D003E003F002D0269
:1001B0002E022F02300231020100400041004200B5
:1001C000430044004500320264024A004D00010031
:1001D00001000100010001000100AE00010001006A
:1001E000BC00AA00A900BB0035001E001F002000B3
:1001F00021002200230024002500260027002A00D9
:100200004C003A003B003C003D003E003F002D000A
:100210002E002F003000310001004000410042005C
:10022000430044004500320064004B004E000100D2
:1002300001000100010001000100AE000100010009
:10024000BE00AA00A900BD001E001E001E001E0068
:100250001E001E001E001E001E001E001E001E00AE
:10026000000014001A000800150017001C001800F8
:100270000C00120013002F000000040016000700FD
:1002800009000A000B000D000E000F0033003400BF
:10029000F45C0000000006001900000000001100DE
:1002A00010000000000000000100005C015CC25C66
:1002B000C35CC55CC65CC75CC85CC95CCA5C4C00FE
:1002C00001000100295C1D5C1E5C135C0A5CF05C93
:1002D000F15CF25CF35C010001002B5C2A5C265CA3
:1002E000275C2C5C2D5C0000000001000100010077
:1002F00001000100010001000100010001000100F6
:1003000001000100010001000100010001000100E5
:1003100001000100010001000100010001000100D5
:1003200001003A003B003C003D003E003F00010060
:1003300001000100010001000100400041004200F5
:1003400043004400450001000100010001000100DC
:100350000100010001000100010001000100010095
:10036000010001000100010009023B0002010080C0
:10037000320904000001030101000921010100010B
:100380002240000705810308000109040100010360
:1003900000000009210101000122840007058303F8
:1003A00008000105010902A10185020901A100055A
:1003B00009190129051500250175019505810275A9
:1003C00003950181030501093009311581257F75E8
:1003D000089502810609381581257F35004500758D
:1003E0000895018106050C0A38021581257F7508DC
:1003F00095018106C0C005010980A1018503150191
:1004000026B700190129B7751095018100C0050CA8
:100410000901A10185041501269C0219012A9C02EB
:10042000751095018100C005010906A101750195AE
:1004300008050719E029E7150025018102950175D6
:100440000881039505750105081901290591029593
:10045000017503910395067508150026FF00050731
:10046000190029FF8100C01201100100000008C01E
:1004700016DB27000101020301240364006D00392B
:10048000007200650063006F007200640073002E4C
:100490000063006F006D003A00700031000C0350E3
:1004A000006C00610069006400160364006D00398F
:1004B000007200650063006F007200640073000446
:1004C0000309040011241FBECFEFD8E0DEBFCDBF6B
:1004D00004B603FE29C08091D2029091D302A0916C
:1004E000D402B091D5028730904BA740B04BE1F4D5
:1004F0001092D2021092D3021092D4021092D5021E
:1005000014BE84B7877F84BF0FB6F894A8958091F6
:100510006000886180936000109260000FBEE091DF
:100520008C02F0918D02099411E0A0E0B1E0E4E2C8
:10053000FCE302C005900D92AC34B107D9F722E07C
:10054000ACE4B1E001C01D92A23DB207E1F70E9408
:10055000D51A0C94101E0C940000A82FB92F80E01F
:1005600090E041E050EA609530E009C02D9182278B
:100570009795879510F084279527305EC8F36F5FB5
:10058000A8F30895EADF8D939D930895CF93CFB795
:10059000CF93DF93C3954B9BE9F74B9B0BC04B9BD2
:1005A00009C04B9B07C04B9B05C04B9B03C04B9B9B
:1005B00001C08BC06F93C091A902DD27C055DD4FEC
:1005C0002F9365E54B9B03C02F916F91E6CF0F935F
:1005D0001F934F9320E040E15F9309B10C7003FB40
:1005E00027F93F9350E03BE039C01C7040642F77FF
:1005F000012F5F5F1EC0406819B11C702F775250E9
:100600001FC0406409B12F770C70D1F15F5F00C04B
:1006100023C0406219B12F771C7091F15F5F00C059
:1006200025C00C701027515012F45D5F000011506E
:1006300027952C3F19B1C8F61C700127015027954A
:100640002C3FC8F64227499309B10C7010274F730D
:10065000115027952C3FA8F64695469519B11C7068
:1006600079F00127015027952C3F98F66B5A60F3DB
:10067000315009B1B0F600C011E01CBB002719C011
:100680003B503195C31BD04011E01CBB0881033C9B
:1006900009F10B34F9F02091A7021981110F1213FF
:1006A000EDCF4A81441F093651F10D3211F0013E60
:1006B00029F70093AE023F915F914F911F910F91E7
:1006C0002F916F91CCB3C0FD65CFDF91CF91CFBF9C
:1006D000CF9118952091AE02222369F31091AC02BC
:1006E0001123E9F53430EAF13093AC022093A802EB
:1006F0001091A9023BE0311B3093A90232C0009156
:10070000AC02013064F50AE54F7049F430913B01C9
:1007100034FD28C000933B01C0E9D2E027C043303C
:1007200049F030919B0234FD1DC000939B02CCE93F
:10073000D2E01CC03091C60234FD14C00093C60242
:10074000C7ECD2E013C0052710E000C000000BB9D1
:100750001AC0052710E0221F1DC010E021C04AE585
:1007600002C032ED432FC4E1D0E032E01AB11C6088
:100770005B9A0BB11AB95CE020E865E320FF05271E
:100780000BB9279517951C3FF0F66695B8F7B1F7AA
:1007900020FF05270BB9279517951C3FD0F6279505
:1007A000179517FF052700001C3F0BB9B0F62991DC
:1007B0003A9519F7037F1091AD02110FC651D04041
:1007C0000BB911F01093A70211E01CBB08601AB11D
:1007D000137F402F437F54E05A95F1F70BB91AB9B4
:1007E0004BB969CF0C94BA090C946E040C94C304F1
:1007F0000C94C0050F9306E024E043E00E946205DC
:100800000F9108958F929F92AF92BF92CF92DF92F5
:10081000EF92FF921F93CF93DF93EC01162FF42EEC
:100820000E94331820914E01FF20B1F0E22FF0E03A
:10083000EE0FFF1FEC0FFD1F408151816B017C010A
:10084000C40ED51EE11CF11CC0924F01D092500184
:10085000E0925101F0925201C0904F01D0905001AE
:10086000E0905101F09052014B015C018C189D0801
:10087000AE08BF0875016401F7FC1AC02F5F21178D
:1008800040F520934E0120914E0130E0220F331F9E
:10089000C20FD31F28813981620F731F811D911DE3
:1008A00060934F01709350018093510190935201D6
:1008B00080914E0180FF10C0449ADF91CF911F912B
:1008C000FF90EF90DF90CF90BF90AF909F908F9070
:1008D000089510924E01D7CF4498EFCF0F931F93F6
:1008E000CF930E94F60A81FF34C0459A00912401FB
:1008F0001091250120912601309127016091D301AB
:100900007091D4018091D5019091D601C1E0061774
:1009100017072807390709F4C0E006171707280743
:10092000390751F0609324017093250180932601CB
:100930009093270110924E010E9412178130A1F06E
:1009400050F08230B1F08330C9F0CF911F910F91F8
:1009500008954598CBCF4C2F61E08CE491E0CF9186
:100960001F910F910C9402044C2F64E08CE191E0F4
:10097000F6CF4C2F66E080E191E0F1CF4C2F68E09C
:1009800080E091E0ECCFFB01823F2CE5920729F15A
:1009900048F4803F2CE5920799F0813F9C45C1F0D7
:1009A00081E00895833F2CE59207E1F0843F9C4568
:1009B000B9F782818823A9F385E00E94F61406C066
:1009C0008281882371F380E00E944F0580E00895C2
:1009D0008281882331F381E0F7CF8281882309F374
:1009E00082E0F2CF82818823E1F284E00E94F61453
:1009F00083E00E94F61486E00E94F61485E00E94CF
:100A0000D5140E945F17811102C00E94DE170E9458
:100A1000771790E090938F0280938E028068809386
:100A20008E020E947B17D2CF81E008951F93CF934F
:100A3000DF9300D000D01F92CDB7DEB749835A8331
:100A40006B8320917C0189819A8121111BC06623CF
:100A5000A9F00E94CB15182F682F89819A810E94D6
:100A6000711569817A81812F0F900F900F900F90EF
:100A70000F90DF91CF911F910C943F070E94A0151A
:100A8000182FEFCF0E94CB1569817A81EDCFFC0141
:100A9000408151816281738184810C941605CF93CA
:100AA000DF93C1E0D0E002C0CC0FDD1F8A95E2F7F2
:100AB0008C2F0E947217BE0190E080E0DF91CF91F1
:100AC0000C9475148F929F92AF92BF92CF92DF9247
:100AD000EF92FF920F931F936B017C0181E090E0F6
:100AE000A0E0B0E04C015D0104C0880C991CAA1C78
:100AF000BB1C4A95D2F7B501A4014C015D0104C0AD
:100B0000880C991CAA1CBB1C2A95D2F74829592984
:100B10006A297B2904C0880F991FAA1FBB1F0A9549
:100B2000D2F78A019B010C211D212E213F210417A0
:100B300015072607370789F48C299D29AE29BF2977
:100B4000BC01CD011F910F91FF90EF90DF90CF90EE
:100B5000BF90AF909F908F90089580959095A095AD
:100B6000B0958C219D21AE21BF21EACF0E945F1755
:100B7000811102C00E94DE170C94F2030C94F4035E
:100B800008950C94F80308950E9482100E94C305F2
:100B90002FEF84E39CE0215080409040E1F700C0BB
:100BA00000000C948F180F931F93CF93DF938C0149
:100BB0000E944705EC01B8010E94F603882309F45E
:100BC00082C0C6318CE5D80709F435C108F04BC0A6
:100BD000C130FCE5DF0709F47CC080F4C115DC45B9
:100BE00009F46CC081E08093580180935901C801D9
:100BF000DF91CF911F910F910C941405C531FCE545
:100C0000DF0780F7F8018281882389F30E945F174C
:100C1000811102C00E94DE170E94771790E0909326
:100C20008F0280938E02FE01E350FC4580918E027C
:100C30008160E231F10508F059C0EF5DF94F0C9485
:100C4000B41D73067F06830687068B068F06930600
:100C500097069B069F06A306A706AB06AF06B3063C
:100C6000B706BB06BF06C83D8CE5D80709F4A5C08A
:100C7000A8F4C73DDC4509F0B5CFF801828188238F
:100C800009F484C0109258010E94271890935501CE
:100C90008093540182E00E94A60D15C0C93D8CE5E9
:100CA000D80709F4ADC0CE3DDC4509F09BCFF80173
:100CB0008281882341F00E94DE1705C0F8018281FD
:100CC00081110E94C40580E0DF91CF911F910F91A7
:100CD0000895F80182818823B1F38091E801816051
:100CE0008093E801F0CF80918E02826080938E0223
:100CF00080918E020E947B170E948210E4CF809127
:100D00008E028460F3CF80918E028860EFCF809155
:100D10008E028061EBCF80918E028062E7CF80915E
:100D20008E028064E3CF80918E028068DFCF809155
:100D30008E028460EACF80918E028E7FD7CF809121
:100D40008E028D7FD3CF80918E028B7FCFCF80910B
:100D50008E02877FCBCF80918E028F7EC7CF80910E
:100D60008E028F7DC3CF80918E028F7BBFCF80910B
:100D70008E028F77BBCF80918E028B7FEACF9091CE
:100D80008E02892F97FB87F98058B0CF8091580148
:100D900081110FC080915401909155010E943F181C
:100DA000883C910530F486E20E94470C86E20E945E
:100DB000500D82E00E94AD0D86CFF801828188231C
:100DC00051F0109259010E94271890935701809377
:100DD000560180E260CF8091590181110FC080914E
:100DE0005601909157010E943F18883C910530F4BC
:100DF00087E20E94470C87E20E94500D80E2DACF22
:100E0000F80182818111DDCF809159018111F6CFE6
:100E100080915601909157010E943F18883C91059E
:100E200068F780E20E94AD0D88E20E94470C88E2DC
:100E30000E94500D48CF0E946016F80192819923BC
:100E400081F08A7A91E009F490E090935301811146
:100E500006C089E20E943B160E94AF1634CF85E39C
:100E6000F9CF80915301811104C089E20E9442169A
:100E7000F3CF85E3FBCF90E080E008950895972FAE
:100E800070E02CE0929F600D711D1124FB0190E336
:100E9000899FE00DF11D1124EE0FFF1FE859FF4F50
:100EA000859194910895FC01EE0FFF1FE859FC4FC6
:100EB000859194910895CF93DF930E943F070E94FC
:100EC0001709EC018115904508F043C0C11580E475
:100ED000D80708F017C1C83ED10528F5C03ED10596
:100EE00008F0A3C0C83AD10580F4C53AD10508F08E
:100EF00092C0C130D10509F498C020F0C430D105AA
:100F000008F093C0D0E0C0E090C0CF3BD10508F41A
:100F100090C0CE01805C9109C03CD10598F30E943D
:100F20005307EC0182C0C11520E2D20750F4C1156D
:100F300081E0D80708F079C0C03FD10518F3D0652B
:100F400074C0C11520E3D20708F0D2C0CE019F7053
:100F5000E6CFC11585E5D80760F5C11524E5D207B0
:100F600008F0FEC0C11582E5D80750F4C11521E58F
:100F7000D20708F4CAC0DC2FCC27C16FD06A55C095
:100F80009C2F969596959E0123703327C115D345C6
:100F900008F0D7C0C1E0D0E002C0CC0FDD1F2A9519
:100FA000E2F720E2929FC0011124C82BD92BDC6804
:100FB0003CC0C11529E5D207A8F4C11588E5D807BA
:100FC00008F0D3C0C11526E5D20708F09BCF8C2FBF
:100FD0000E949709C82FD0E0DC2FCC27CC27DF71E7
:100FE000D06223C0C1158AE5D80708F4C3C0CE017A
:100FF00090568115904208F085CF8D2F8F710E94F9
:101000009709DD27D06290E0982F882788279F7165
:10101000C82BD92B0AC0C53AD10509F4BDC0C63AC0
:10102000D10509F4BCC0C3E8D0E4CE01DF91CF9173
:101030000895C83AD10509F4B5C0C93AD10509F4F3
:10104000B4C0CA3AD10509F4B3C0CB3AD10509F40A
:10105000B2C0CC3AD10509F4B1C0CB3BD10509F4FB
:10106000B0C0CC3BD10509F4AFC0CD3AD10509F4ED
:10107000AEC0C03BD10509F4ADC0CE3AD10509F4EC
:10108000ACC0CF3AD10509F4ABC0C13BD10509F4DE
:10109000AAC0C23BD10509F4A9C0C33BD10509F4DC
:1010A000A8C0C43BD10509F4A7C0C53BD10509F4CC
:1010B000A6C0C63BD10509F4A5C0C73BD10509F4BC
:1010C000A4C0C83BD10509F4A3C0C93BD10509F4AC
:1010D000A2C0CD3BD10509F4A1C0CE3BD10509F496
:1010E000A0C0CA3BD10509F09FC0CAE2D6E49DCF9B
:1010F000CE019927D3FF03C0EC01D86C96CFEC0149
:10110000D06C93CFDF70D06A90CFCE01F4E096958B
:101110008795FA95E1F783709C2F937021E030E07A
:1011200002C0220F331F9A95E2F73C68382BC69510
:10113000C695C37080E2C89FE0011124C22BD32B57
:1011400074CFC1E0D0E002C0CC0FDD1F2A95E2F7DA
:1011500020E2929FC0011124C82BD92BDA6865CFF9
:10116000DC2FCC27C46FD06A60CFDC2FCC27C06FB8
:10117000D06A5BCF8C2F8F700E94970934E0D69590
:10118000C7953A95E1F7CF70D0E0DC2FCC27D06A35
:101190008F70806EC82B49CFC1E8D0E446CFC2E83B
:1011A000D0E443CFC2EED4E440CFC9EED4E43DCF87
:1011B000CAEED4E43ACFC5EBD4E437CFC6EBD4E4DF
:1011C00034CFC3EBD4E431CFC4EBD4E42ECFC7EBA0
:1011D000D4E42BCFCCECD4E428CFCDECD4E425CF91
:1011E000C3E8D5E422CFCAE8D5E41FCFC2E9D5E4ED
:1011F0001CCFC4E9D5E419CFC1E2D6E416CFC3E2CF
:10120000D6E413CFC4E2D6E410CFC5E2D6E40DCFC6
:10121000C6E2D6E40ACFC7E2D6E407CFCFE6D4E4ED
:1012200004CFC0E7D4E401CFC0E0D4E4FECE8238DE
:10123000910549F1B0F48133910509F45CC048F49B
:101240008932910509F452C08A32910509F458C0D7
:1012500008958533910509F444C08933910599F0C7
:101260000895833E910531F138F4803E910591F067
:10127000823E9105B1F00895863E910511F1873EB9
:10128000910541F1089520918E022370C9F080EEFE
:1012900090E0089520918E0220FF12C089E390E033
:1012A000089520918E0222FF0BC024FF2EC090E0F3
:1012B00080E0089520918E0222FD2AC024FDF7CF00
:1012C000089520918E0223FFFBCF24FDF0CF87EEFF
:1012D00090E0089520918E0223FFF0CF86EE90E0FB
:1012E000089520918E0225FD16C0089520918E024A
:1012F00025FD14C0089520918E0226FD12C0089588
:1013000020918E0226FD10C0089583EE90E008958E
:1013100082EE90E0089589E290E0089585E390E000
:1013200008958AE290E0089581E390E0C9CF90911A
:101330008E0292FF06C0282F2871283069F4877F1B
:10134000846093FF06C0282F2871283161F4877EBE
:10135000846194FD877E0895282F2471243089F7B5
:101360008B7F8860EECF282F2471243191F78B7EFC
:101370008861EFCF0895E82FF0E0EE0FFF1FE65AE7
:10138000FE4F8081918108950895CF93DF93A8E463
:10139000B1E02CE431E061E070E09D91E92FE2954D
:1013A000EF70F0E041A19F70EB0102C0CC0FDD1F98
:1013B0009A95E2F7CE018095842381A32A173B07F3
:1013C00061F7ACE3B1E048E451E0C1E0D0E08D91D9
:1013D000E82FE295EF70F0E061A18F709E0101C0EF
:1013E000220F8A95EAF7922F9095962391A382A1D6
:1013F000822B82A34A175B0751F710926301109268
:10140000620110925B0110925A01109265011092D4
:10141000640110925D0110925C01109267011092BC
:10142000660110925F0110925E01109269011092A4
:101430006801109261011092600184E00E94B70A75
:10144000DF91CF910C94B6056F927F929F92AF92ED
:10145000BF92CF92DF92EF92FF920F931F93CF93A1
:10146000DF93A2E6B1E098E4692E91E0792E20E0C6
:10147000EE24E394F12CAD90BC90119711961C9240
:101480001E92E30189913E01E82FE295EF70F0E0B2
:1014900091A18F70B70101C0660F8A95EAF7892F75
:1014A000862B81A382A1962E9094892182A3D0EAD3
:1014B000DA95F1F78CE3C82E81E0D82E50E040E0B9
:1014C000E60139916E01032F02950F7010E0E801DB
:1014D00088A10D911C91119790E03F7002C09595E5
:1014E00087953A95E2F780FD3FC0C701042E02C000
:1014F000880F991F0A94E2F7082B192B11961C9359
:101500000E934F5F5F4F4C305105D1F681A1892179
:1015100081A382A1682B62A381E04D915C91119718
:101520004A155B0509F480E0282B1296DCE46D1661
:10153000D1E07D0609F09FCF44E06AE571E082E6E4
:1015400091E00E94B80A0E94BE0581E0DF91CF9130
:101550001F910F91FF90EF90DF90CF90BF90AF90D1
:101560009F907F906F90089590E080E0C5CF0895A0
:10157000FF920F931F93CF93DF93F82E092F162F0F
:10158000D72FC42F222349F081E080936C010E9461
:10159000271890936B0180936A0180916C018823D6
:1015A000A1F080916A0190916B010E943F1806970B
:1015B00060F0EF2DF02FA12FBD2F90E080E0D0E064
:1015C0008C179D0744F010926C01DF91CF911F9111
:1015D0000F91FF900895219131912D933D930196A4
:1015E000EFCF90937201809371010895E0917101A2
:1015F000F0917201309721F00190F081E02D099473
:1016000080E00895E0917101F0917201309721F02E
:101610000280F381E02D09940895E0917101F09129
:101620007201309721F00480F581E02D099408952E
:1016300020916F01309170012817390771F0909354
:10164000700180936F01E0917101F0917201309708
:1016500021F00680F781E02D0994089520916D0115
:1016600030916E012817390771F090936E018093C5
:101670006D01E0917101F0917201309721F00084C9
:10168000F185E02D09940895089508950C94440B74
:1016900008950C94480B0E94450B0C94460B81E076
:1016A00008950E941E180E94C5090E94AB180C9450
:1016B000490B5F926F927F928F929F92AF92BF92EF
:1016C000CF92DF92EF92FF920F931F93CF93DF930E
:1016D000CDB7DEB72A970FB6F894DEBF0FBECDBFE9
:1016E0000E94240A0E944F0B882309F47AC094E7D1
:1016F000A92E91E0B92E10E000E088248394912C6B
:10170000502E802F0E94BB097C01F501C190D19021
:101710005F01C816D90609F45EC08091E80181FD19
:101720000E94C40990E080E0CE24DF243401082E1A
:1017300002C0660C771C0A94E2F796012621372135
:10174000232B09F443C08E835F82E620F72081E0DB
:10175000EF2809F480E088870E9427188160782F9D
:101760009A8789874E815F8168858A850E94180CD7
:10177000000F111FF801EC58FE4F808191816826FF
:101780007926718260820E943E1A0E94F60A909128
:1017900073018917B9F10E94F60A809373012A96A2
:1017A0000FB6F894DEBF0FBECDBFDF91CF911F9172
:1017B0000F91FF90EF90DF90CF90BF90AF909F90F0
:1017C0008F907F906F905F900C94C10501968C3044
:1017D000910509F0ABCF0F5F1F4F0430110509F0E1
:1017E0008FCF8FEF89838A831B820E9427188160A5
:1017F000782F9D838C8349815A816B818D810E94D2
:10180000180CC1CF2A960FB6F894DEBF0FBECDBF1D
:10181000DF91CF911F910F91FF90EF90DF90CF90CC
:10182000BF90AF909F908F907F906F905F90089542
:10183000CF93DF93CDB7DEB72B970FB6F894DEBF0B
:101840000FBECDBF4F83588769877A878B871E82EB
:101850001D8285E0FE013796DE01119601900D9202
:101860008A95E1F749815A816B817C818D819E81C6
:101870002B960FB6F894DEBF0FBECDBFDF91CF9190
:101880000C944413FC01808191810C940D168823E3
:1018900009F405C18238B9F40E94F60A81FDFFC03F
:1018A00089E30E943B160E94AF162FEF81EE94E071
:1018B000215080409040E1F700C0000089E30E9481
:1018C00042160C94AF168338A1F40E94F60A80FDEC
:1018D000E6C083E50E943B160E94AF162FEF81EE13
:1018E00094E0215080409040E1F700C0000083E583
:1018F000E6CF8438A1F40E94F60A82FDD0C087E4C6
:101900000E943B160E94AF162FEF81EE94E021500B
:1019100080409040E1F700C0000087E4D0CF9CEF0A
:10192000980F913A18F40E943B16CBCF90E2980F93
:10193000983050F4877091E001C0990F8A95EAF7CA
:10194000892F0E946316BDCF9BE5980F933070F4EA
:10195000853A31F0863A39F083E890E00C94180B20
:1019600081E890E0FBCF82E890E0F8CF98E5980F0F
:10197000973108F08EC0883A09F446C0893A09F4D4
:1019800046C08A3A09F446C08B3A09F446C08C3AFC
:1019900009F446C08B3B09F446C08C3B09F446C0B1
:1019A0008D3A09F446C0803B09F446C08E3A09F4EA
:1019B00046C08F3A09F446C0813B09F446C0823BD9
:1019C00009F446C0833B09F446C0843B09F446C091
:1019D000853B09F446C0863B09F446C0873B09F4C1
:1019E00046C0883B09F446C0893B09F446C08D3B9C
:1019F00009F446C08E3B09F446C08A3B09F446C050
:101A000090E080E00C942E0B82EE90E0FBCF89EE0C
:101A100090E0F8CF8AEE90E0F5CF85EB90E0F2CF42
:101A200086EB90E0EFCF83EB90E0ECCF84EB90E09F
:101A3000E9CF87EB90E0E6CF8CEC90E0E3CF8DEC44
:101A400090E0E0CF83E891E0DDCF8AE891E0DACF63
:101A500082E991E0D7CF84E991E0D4CF81E292E0AE
:101A6000D1CF83E292E0CECF84E292E0CBCF85E289
:101A700092E0C8CF86E292E0C5CF87E292E0C2CF83
:101A80008FE690E0BFCF80E790E0BCCF8AE292E0A3
:101A9000B9CF803F20F00E9447190C94331A089563
:101AA000882309F452C0823871F40E94F60A81FF3B
:101AB0004CC089E30E943B160E94AF1689E30E9446
:101AC00042160C94AF16833859F40E94F60A80FF30
:101AD0003CC083E50E943B160E94AF1683E5EFCF22
:101AE000843859F40E94F60A82FF2FC087E40E94CE
:101AF0003B160E94AF1687E4E2CF9CEF980F913A15
:101B0000F0F290E2980F983050F4877091E001C0A5
:101B1000990F8A95EAF7892F0E946916D2CF9BE523
:101B2000980F933020F490E080E00C94180B98E527
:101B3000980F973120F490E080E00C942E0B803FBA
:101B400020F00E94AF190C94331A0895882321F0D5
:101B50000E9463160C94AF160895882321F00E940A
:101B600069160C94AF1608958F929F92AF92BF9210
:101B7000DF92EF92FF920F931F93CF93DF937C013D
:101B8000D62FC72FFC01058102950F70128111110C
:101B90000E9482160E945916D82E882371F01123B4
:101BA00031F180E28D0F883010F182E00E94FA1648
:101BB0000E94591691E0D82ED926BC2EB2949FE0EF
:101BC000B922EB2DF0E0E951F24F0C94B41DF90D60
:101BD000F90D490E490E900EB80E970E970EFA0E9B
:101BE000970E950F950F1F10970E970E2810D12C5A
:101BF000E4CF0C2F0F70C07F11F00295007F1123EE
:101C0000A9F0002359F080E28D0F883010F0D11137
:101C100009C0802F0E9463160E94AF168D2F0E946C
:101C2000470C14C0802F0E947416F6CF8D2F0E948F
:101C3000500D002359F080E28D0F883010F0D11143
:101C400024C0802F0E9469160E94AF16DD2009F47F
:101C500006C20E94551680FD02C2F70112820E9440
:101C60004F160E94D514C7010E943B100E944F16C8
:101C7000DF91CF911F910F91FF90EF90DF90BF9078
:101C8000AF909F908F900C94F614802F0E947A163C
:101C9000DBCFFC2FFF70BF2EC07FC03219F0B29493
:101CA00080EFB822DD2369F0D13049F1112391F1A1
:101CB000002351F1F701858180FFB0CF8F708583BC
:101CC00023C0112381F0011106C00E9496168B29B2
:101CD0000E94A60DBBCF0130C1F70E9496168B293A
:101CE0000E949C16B3CF011106C00E94A5168B2D31
:101CF0000E94AD0DABCF013009F4A8CFF6CF112370
:101D000029F0063008F0A2CF8B2DE2CF053008F085
:101D10009DCFEDCF002359F38D2F0E94500D96CF0C
:101D20008C2F86958695837079F08130B9F098E094
:101D3000B91609F49BC0B91608F488CF86EF8B0D4D
:101D4000823008F493C082CF8D2F9C2F9370111195
:101D500002C090E080E00E94180B78CF8D2F9C2F5E
:101D60009370111102C090E080E00E942E0B6ECFA4
:101D7000112309F1D53F99F0D63FB9F0D43F49F48A
:101D80008091860290918702816090938702809370
:101D900086028D2F0E9447190E94331A57CF8091D7
:101DA0008602909187028260F0CF809186029091A6
:101DB00087028460EACFD53F89F0D63FA9F0D43FAF
:101DC00049F480918602909187028E7F90938702DA
:101DD000809386028D2F0E94AF19DECF80918602FC
:101DE000909187028D7FF2CF809186029091870239
:101DF0008B7FECCF8C2F837009F04BC0111136C054
:101E00002D2F229526952770220F220F6D2F6F7090
:101E1000862E912CB12CA12C022E04C0880C991C6A
:101E2000AA1CBB1C0A94D2F760E070E0CB01D4FF7F
:101E30000FC06FE070E080E090E004C0660F771F95
:101E4000881F991F2A95D2F7609570958095909577
:101E5000C695C695C370C23071F0A0F4682979297F
:101E60008A299B29C13091F00E9489140E94F60AA8
:101E70000E94C105EBCE682979298A299B290E94F5
:101E80009B14F4CF0E948914C501B4010E947714F9
:101E9000EDCF8695112311F08C2F8170882331F3BB
:101EA0002D2F229526952770220F220F6D2F6F70F0
:101EB000862E912CB12CA12C022E04C0880C991CCA
:101EC000AA1CBB1C0A94D2F760E070E0CB01D4FFDF
:101ED0000FC06FE070E080E090E004C0660F771FF5
:101EE000881F991F2A95D2F76095709580959095D7
:101EF000C695C695C370C23051F080F4682979291F
:101F00008A299B29C13071F00E944C15AFCF6829F6
:101F100079298A299B290E945E15A8CF0E944C1519
:101F2000C501B4010E943A15A1CFE0E2ED0FE53101
:101F300008F066C0F0E0E156F04F0C94B41DB40F09
:101F4000B40FB40FB40FB40FB40FB40FB40FB40F79
:101F5000B40FB40FB40FB40FB40FB40FB40FC50F58
:101F6000D30FDA0FE10FEB0FDF708C2F8F7111237E
:101F700031F00E94D5148D2F0E94A60DD8CE0E945C
:101F8000F6148D2F0E94AD0DD2CE112341F00530F5
:101F900008F0CDCE8C2F8F710E941915C8CE063057
:101FA00008F0C5CEF7CF8C2F8F71112339F00E9426
:101FB000D514BDCE8C2F8F711123C9F30E94F61456
:101FC000B6CE112329F08C2F8F710E94C014AFCE92
:101FD0000E94BB14ACCE112349F0CF718C2F0E940C
:101FE000D51463E08C2F0E94E516A1CE81E00E94FB
:101FF000FA16023008F49BCE82E00E94FA1697CEC1
:10200000112349F0002321F08D2F0E94470C8FCE21
:102010008C2F8F71CCCF002379F0D93349F4FFEFA7
:1020200027EE83E0F15020408040E1F700C000003F
:102030008D2F0E94500D7BCE8C2F8F71BFCF4C2FD8
:102040004F706D2FC7010E943B070E94ED13FECD1C
:102050004C2F4F706D2FC7010E943E07F7CDDF91C7
:10206000CF911F910F91FF90EF90DF90BF90AF90B5
:102070009F908F9008950F931F93CF93DF93EC0160
:10208000988189812B813C81232B39F08F3F19F472
:1020900081E09F3F19F080E001C081E080FD17C022
:1020A000CE010E94D305882391F0688179818A81CD
:1020B0000E9417168C010E9470150E947414B801BA
:1020C000CE01DF91CF911F910F910C94B40DDF9150
:1020D000CF911F910F9108950E9482160E9493162E
:1020E0000E94AF160E94C91A0E94331A90E080E045
:1020F0000E94180B90E080E00C942E0B0E94491671
:102100000C946C100E9471160C947E10E92FE295CD
:10211000EF70E250EE30E0F4F0E0EF56FF4E0C943A
:10212000B41D9F109F10A810A810AA10A810A810E6
:10213000A8109F109F10AF10A810A810AF10803FDC
:1021400019F020F4803E20F481E00895843FE1F30B
:1021500080E00895803EC0F3813FD1F7F5CF93FB37
:10216000882780F908950E940D160C948610CF934D
:10217000DF9300D000D01F92CDB7DEB70F900F9045
:102180000F900F900F90DF91CF910895CF93DF9331
:1021900000D000D000D0CDB7DEB726960FB6F894A9
:1021A000DEBF0FBECDBFDF91CF9108951F93CF93B8
:1021B000DF93C0917D0116E080917E018C1304C0F5
:1021C000DF91CF911F910895D0E01C9FF0011D9FDA
:1021D000F00D1124E158FE4F4081518162817381DD
:1021E000848195810E94C6102196C770E5CF4091E9
:1021F000AF015091B0016091B1017091B201809135
:10220000B3019091B4010C94C6101F93CF93DF9348
:102210008091B401807FD1F48091B1018823B1F025
:1022200080917D01D0917E01B091AF01C091B0014C
:102230004091B2015091B301A1E0BF3F09F0A0E08D
:10224000BA016095709516E0D81304C0DF91CF9164
:102250001F91089521E04115510521F02A2FCF3F0C
:1022600009F020E090E020FD38C0189FF001199F90
:10227000F00D1124E158FE4F21812C132EC0208136
:102280002B132BC02281211128C0238134812417D4
:10229000350700F1241B350B283C3105F0F4209163
:1022A000B4012F7020612093B40126E0289FF00133
:1022B000299FF00D1124EC57FE4F80818F708061B3
:1022C00080838FEA91E00E943B10DF91CF911F91B4
:1022D0000C94D610260F371FDFCF01968770B4CF2E
:1022E000AF92BF92CF92DF92EF92FF920F931F9324
:1022F000CF93DF93CDB7DEB761970FB6F894DEBF0B
:102300000FBECDBF8C0185E0F801DE011D96019066
:102310000D928A95E1F7D8014C9111965C91119735
:102320001296EC903091AF016091B0018091B201B2
:102330009091B30121E0009731F06F3F19F421E053
:102340003F3F09F020E0B22FB170BB2E20FD80C1CD
:10235000F801C380D480A090B101AA2009F427C15C
:10236000C816D906D0F1D601A81BB90BCD01FF24A0
:10237000F394883C910508F0F12C8091B401982FDA
:10238000907FFF2009F4CEC0911187C0FE2C651309
:1023900029C0341327C0E11025C08F70806180935D
:1023A000B4010E94F7108FEA91E00E943B108091E7
:1023B000B401F80185838F2D61960FB6F894DEBFC6
:1023C0000FBECDBFDF91CF911F910F91FF90EF9086
:1023D000DF90CF90BF90AF900895809590958C0D31
:1023E0009D1DC5CF81E0CD2831F05F3F19F481E01C
:1023F0004F3F09F080E080FD24C081E08E25F82F5A
:10240000F170DF2E80FF3FC080917D0120917E0121
:1024100036E0821318C04D875E878D859E850E94A9
:102420000D16292F22952F70223008F1243030F517
:102430009F7009F1D80115969C91907FE1F4FB2CD7
:10244000BACF80E0DCCF90E0389FF001399FF00DEB
:102450001124E158FE4F6181561306C06081461376
:1024600003C062816E110FC001968770D2CF9F703A
:1024700011F0882321F3805E883008F3C8010E94A0
:102480003B10BD2CDCCFEE2009F495CF8091B40138
:1024900081608093B401F12C8ECF651314C0341386
:1024A00012C0E11010C0F8018583C8010E943B10E2
:1024B00086E0F801AFEAB1E001900D928A95E1F76C
:1024C0000E94F71078CF4D875E878D859E850E948C
:1024D000B310882319F1EE2009F18091B401803204
:1024E00070F02091AF013091B00138872F831986A9
:1024F000DB86CA868C87CE0107960E943B1086E059
:10250000F801AFEAB1E001900D928A95E1F70E94DF
:1025100005110E94F710FF24F3944DCFC8010E94CB
:102520003B10F9CF911113C07C2DD98AC88A6E2D2A
:1025300089890E94B7108FEA91E00E943B1086E0E3
:10254000EFEAF1E0DF011D928A95E9F7B9CF651353
:1025500012C0341310C0E1100EC0F8018583C80109
:102560000E943B10EFEAF1E086E0DF011D928A95C0
:10257000E9F7FA2C20CF4D875E878D859E850E94D6
:10258000B310882359F2EE2049F28091B4018032D1
:1025900008F4B5CF2091AF013091B0013A8329837F
:1025A0001B82DD82CC828E83CE010196A6CFC81617
:1025B000D90638F1F601E81BF90BCF01F12C883C64
:1025C000910508F03DC0FE2CEE2009F4A7CF65135D
:1025D00026C0341324C08091B40180FD17C0982F09
:1025E000907FA1F0D80115968C931597903F09F430
:1025F0005CCF982F907F905F8F70892B15968C936E
:1026000054CF809590958C0D9D1DD8CF86E0F80114
:10261000AFEAB1E001900D928A95E1F7CCCE4D87FB
:102620005E878D859E850E94B310811168CF809151
:10263000B40181608093B401C8010E943B10BBCEFD
:102640007C2DD98AC88A6E2D89890E94B71077CFD0
:10265000EE2009F463CF4D875E878D859E850E94AD
:10266000B310F82E882309F459CF86E0F801AFEAB9
:10267000B1E001900D928A95E1F78FEA91E00E9416
:10268000420C0E9405111CCF1F93CF93DF93CDB74F
:10269000DEB72C970FB6F894DEBF0FBECDBF4F83C9
:1026A000588769877A878B879C87CE0107960E9417
:1026B0007011882309F442C09F8188852A853B8553
:1026C000232B39F08F3F19F481E09F3F19F080E010
:1026D00001C081E080FD08C04F81588569857A85F9
:1026E0008B859C850E94C61016E080917D0190919B
:1026F0007E01891709F467C0819FC00111248158A8
:102700009E4F0E947011882309F45DC0E0917D0105
:102710001E9FF0011124E158FE4F408151816281DA
:102720007381848195810E94C61080917D0190E023
:1027300001968770992780937D01D7CF86E0FE01AF
:102740003796DE01119601900D928A95E1F79F81EF
:1027500088852A853B85232B39F08F3F19F481E04A
:102760009F3F19F080E001C081E080FDBDCF209146
:102770007E0130E0C90101968770992740917D0163
:102780004817190699F096E0929FD001939FB00DDB
:102790001124A158BE4FFE01319601900D929A95D9
:1027A000E1F780937E010E94D6109ECF0E94821096
:1027B00010927E0110927D0186E0EFEAF1E0DF01E8
:1027C0001D928A95E9F72C960FB6F894DEBF0FBEDE
:1027D000CDBFDF91CF911F910895EF92FF920F939C
:1027E0001F93CF93DF938C01892B81F0F12CEE2482
:1027F000E394E8012196F8018491843770F48430E1
:1028000008F05FC08130B1F08230A1F1DF91CF914B
:102810001F910F91FF90EF900895853709F44CC0F8
:1028200008F43DC09CE7980F903780F78F770E949F
:10283000500D49C00E5F1F4FFE01849190E2980F2A
:10284000983060F48770FE2D01C0FF0F8A95EAF77B
:102850008F2F0E9485160E94AF1602C00E94470C5F
:102860008F2D815030F2EFE9FFE03197F1F700C092
:102870000000F7CF0E5F1F4FFE01849190E2980F8A
:10288000983050F48770FE2D01C0FF0F8A95EAF74B
:102890008F2F0E948B16DFCF0E94500DE1CF0E5F6D
:1028A0001F4FFE01C491C150D8F28FE99FE00197FC
:1028B000F1F700C00000F7CF0E5F1F4FFE01F4904C
:1028C000CFCF0E94470C8E01CBCF08950C94651496
:1028D0000E9466146093D7017093D8018093D90148
:1028E0009093DA010C946C1008950C9468140F9373
:1028F0001F930091D7011091D8012091D9013091F7
:10290000DA01602B712B822B932B1F910F910C946A
:1029100068140F931F930091D7011091D801209153
:10292000D9013091DA0160237123822393231F910F
:102930000F910C9468140F931F930091D70110917D
:10294000D8012091D9013091DA01602771278227BF
:1029500093271F910F910C9468140C94FA030E9412
:10296000AD146093D3017093D4018093D5019093FB
:10297000D6010C946C1060E070E0CB010C94AF14A5
:102980000F931F9341E050E060E070E08A019B01EB
:1029900004C0000F111F221F331F8A95D2F7C901EF
:1029A000B8011F910F910C94AF140F931F9341E046
:1029B00050E060E070E004C0440F551F661F771FB1
:1029C0008A95D2F78091D3019091D401A091D5013D
:1029D000B091D6018A019B01082B192B2A2B3B2B86
:1029E000C901B8011F910F910C94AF140F931F935D
:1029F00041E050E060E070E004C0440F551F661FE6
:102A0000771F8A95D2F7CB01BA01609570958095B2
:102A100090950091D3011091D4012091D50130916E
:102A2000D60160237123822393231F910F910C946D
:102A3000AF140F931F9341E050E060E070E004C0DA
:102A4000440F551F661F771F8A95D2F78091D301D7
:102A50009091D401A091D501B091D6018A019B013A
:102A6000082719272A273B27C901B8011F910F9171
:102A70000C94AF140F931F930091D3011091D401C4
:102A80002091D5013091D601602B712B822B932B95
:102A90001F910F910C94AF140F931F930091D301CA
:102AA0001091D4012091D5013091D601602371237A
:102AB000822393231F910F910C94AF140F931F93B4
:102AC0000091D3011091D4012091D5013091D6010C
:102AD00060277127822793271F910F910C94AF14C1
:102AE00008952CE0929F800D1124982F977071E02B
:102AF00001C0770F9A95EAF786958695869525E029
:102B0000829FC001112450E040E0A62FB0E0FC01FC
:102B1000E40FF51FEB54FE4F60819D01042E02C0AF
:102B2000369527950A94E2F72170219526272723C9
:102B3000262720834F5F5F4F4530510541F70895A9
:102B40002CE0929F800D1124982F97708695869582
:102B5000869525E0829FA001112470E060E080E06E
:102B6000FA01E60FF71FEB54FE4F208130E0092EEB
:102B700002C0369527950A94E2F721703327062E76
:102B800001C0220F0A94EAF7822B6F5F7F4F6530F6
:102B9000710531F70895BF92CF92DF92EF92FF92C5
:102BA0000F931F93CF93DF938C01C090D301D090EC
:102BB000D401E090D501F090D6018091D701909199
:102BC000D801A091D901B091DA01C82AD92AEA2AFC
:102BD000FB2ACFE1D0E0BC2ED701C6010C2E04C0E9
:102BE000B695A795979587950A94D2F780FD0EC064
:102BF000219788F7B12C8B2DDF91CF911F910F91E9
:102C0000FF90EF90DF90CF90BF900895B8018C2F88
:102C10000E945B07019761F3EECFCF93DF93EC0146
:102C20000E94CB15BE01DF91CF910C945B071F93DF
:102C3000CF93DF93EB0190917C01992331F0CB018D
:102C4000DF91CF911F910C940D16882379F0CB0161
:102C50000E94CB15182F682FCE010E947115BE015E
:102C6000812FDF91CF911F910C945B07CB010E94C4
:102C7000A015182FF4CF682F809128019091290179
:102C80000C941318682F80912801909129010C94BD
:102C9000151880912801909129010C9417188091A2
:102CA000DB0185958595859508958091DB01877079
:102CB00008959091DB01977081E009F480E0089518
:102CC0008091E70108959091E701892B8093E701B6
:102CD0000895982F90958091E70189238093E701CB
:102CE00008951092E70108959091E601892B809351
:102CF000E6010895982F90958091E60189238093AD
:102D0000E60108951092E60108959091E501892B5E
:102D10008093E5010895982F90958091E50189238E
:102D20008093E50108951092E50108958091DC01FA
:102D3000089508950C9499169091DC01981721F04C
:102D40008093DC010C949A1608958091DC0188230D
:102D500029F01092DC0180E00C949A160895E0911D
:102D60002801F09129018091E7018083E0912801F9
:102D7000F091290180819091E601892B8083E09177
:102D80002801F091290180819091E501892B8083B0
:102D90009091DC01992381F0E0912801F0912901C3
:102DA0008081892B808380912801909129010E9444
:102DB000E01781110E94A5168091280190912901A8
:102DC0000C94020B08950C94E21698E0899F9001F0
:102DD0001124622B6093DB010E94D5148091DB01EA
:102DE0008595859585950C94E3161092DB0180E01E
:102DF0000C94E3169091DB01809589238093DB018D
:102E0000282F277071F4282F082E000C330B9217EF
:102E1000130639F08595859585950E94F6140C94D6
:102E2000F5160895CF92DF92EF92FF926C01EE2497
:102E3000FF2420E0C114D104E104F10419F0C7011A
:102E4000B60120E1C72ED82EE92EFF24C114D104EB
:102E5000E104F10419F0285FC701B6016B017C01A0
:102E600054E0F694E794D794C7945A95D1F7C114D7
:102E7000D104E104F10419F02C5FC701B6016B0124
:102E80007C0142E0F694E794D794C7944A95D1F731
:102E9000C114D104E104F10419F02E5FC701B60199
:102EA0009695879577956795672B682B692B09F021
:102EB0002F5F822FFF90EF90DF90CF90089590E0EA
:102EC00080E00E94D61D21E08D3E9E4F09F020E05B
:102ED000822F089582E090E00C94CE1D83E090E074
:102EE0000C94CE1D682F83E090E00C94DC1D84E0F0
:102EF00090E00C94CE1D682F84E090E00C94DC1DD3
:102F0000AB01BC018FE090E00C94EE1DAB01BC0165
:102F100083E190E00C94EE1D60E070E0CB010C9436
:102F2000861760E070E0CB010E9480170C948C172C
:102F30006DEE7EEF90E080E00E94FA1D60E082E09E
:102F400090E00E94DC1D60E083E090E00E94DC1DC8
:102F50001092D7011092D8011092D9011092DA0183
:102F600060E084E090E00E94DC1D60E085E090E09D
:102F70000E94DC1D60E086E090E00E94DC1D6FEFA7
:102F800087E090E00E94DC1D40E050E0BA0188E05C
:102F900090E00E94EE1D60E08DE090E00E94DC1D5C
:102FA00040E050E0BA0188E190E00E94EE1D60E050
:102FB00087E190E00E94DC1D0C9491170C94981707
:102FC000FC01329697E080E0915009F40895219138
:102FD0002223D1F38F5FF8CF9C01FC0132969FEF43
:102FE00080E04191461751F09F3F19F4411101C013
:102FF000982F8F5F8630A9F79F3F09F40895290F16
:10300000311D97FD3A95F90162830895FC013296CE
:1030100008962191261303C0DF0111971C92E8172F
:10302000F907B9F708950C94EC170C94061802965A
:1030300026E0FC0111922A95E9F7089582E084BD0B
:1030400093E095BD9AEF97BD80936E0008952FB7DA
:10305000F8948091880290918902A0918A02B0919F
:103060008B022FBF08952FB7F8946091880270915A
:10307000890280918A0290918B022FBF0895CF928E
:10308000DF92EF92FF920F931F932FB7F894409126
:1030900088025091890260918A0270918B022FBF41
:1030A0006A017B01EE24FF248C0130E020E0C01691
:1030B000D106E206F30650F0481B590BCA011F91D6
:1030C0000F91FF90EF90DF90CF90089541505109FC
:1030D000F3CF78941F920F920FB60F9211248F9313
:1030E0009F93AF93BF938091880290918902A091A2
:1030F0008A02B0918B020196A11DB11D80938802B6
:1031000090938902A0938A02B0938B02BF91AF91F2
:103110009F918F910F900FBE0F901F90189589E08F
:10312000E3E0F0E080935700E49187E090EBDC016E
:103130008093D2029093D302A093D402B093D5028D
:1031400088E19CE00FB6F894A895809360000FBECC
:1031500090936000FFCF0E945F17811102C00E9410
:10316000DE170E946A178093E8010E94771790E0AB
:1031700090938F0280938E020E946E17682F70E0EA
:1031800090E080E00C9475148091EC0180FF12C0F7
:1031900060912D0185E0689FB001112475956795B8
:1031A0007595679560387105A8F561157105A1F1F0
:1031B000862F089581FF09C060912D0185E0689FE9
:1031C000B001112475956795EDCF82FF07C060911E
:1031D0002D0185E0689FB0011124E4CF2091EB011F
:1031E0002223A9F090912C0160912D0185E0689F28
:1031F000B00111242917B0F6269FA001279F500D7A
:103200001124692F70E0CA010E94A01DCBCF65E098
:1032100070E0CECF8FE7089581E008958091EC01B2
:1032200080FF0CC060912B0170E0759567957595D6
:1032300067956115710549F1862F089581FF06C0D4
:1032400060912B0170E075956795F3CF60912B012C
:1032500082FD0BC09091EB019923A1F060912A01AE
:1032600080912B01961738F0682F70E06038710557
:1032700000F38FE70895899FC001112470E00E9438
:10328000A01DF4CF61E070E0D7CF81E00895803FCA
:1032900031F40E94C41881958093EF010895813F15
:1032A00019F40E94C418F8CF823F31F40E94C41868
:1032B00081958093EE010895833F19F40E94C4180C
:1032C000F8CF893F29F40E940E198093F0010895E8
:1032D0008A3F21F40E940E198195F7CF8B3F31F47C
:1032E0000E940E1981958093F10108958C3F19F485
:1032F0000E940E19F8CF843F31F48091ED01816076
:103300008093ED010895853F21F48091ED01826065
:10331000F7CF863F21F48091ED018460F1CF873FA4
:1033200021F48091ED018860EBCF883F21F48091FA
:10333000ED018061E5CF8D3F31F48091EC0181603A
:103340008093EC0108958E3F21F48091EC0182601E
:10335000F7CF8F3FB9F78091EC018460F1CF803FC8
:10336000C1F48091EF0187FD1092EF018091EE0191
:1033700081110EC08091EF0181110AC08091F0018E
:10338000811106C08091F101811102C01092EB0100
:103390000895813F29F48091EF0118162CF3E6CFB0
:1033A0009091EE01823F29F497FFE0CF1092EE0159
:1033B000DDCF833F19F41916CCF3D8CF893F39F408
:1033C0008091F001181694F61092F001CFCF8A3F49
:1033D00029F48091F00187FFC9CFF6CF8B3F39F4F4
:1033E0008091F10187FFC2CF1092F101BFCF8C3FD6
:1033F00029F48091F1011816BCF3B8CF843F31F461
:103400008091ED018E7F8093ED01B0CF853F21F457
:103410008091ED018D7FF7CF863F21F48091ED0102
:103420008B7FF1CF873F21F48091ED01877FEBCF38
:10343000883F21F48091ED018F7EE5CF8D3F31F4FF
:103440008091EC018E7F8093EC0190CF8E3F21F430
:103450008091EC018D7FF7CF8F3F09F087CF80916E
:10346000EC018B7FF0CF8DEE91E00E940D0B0E945E
:1034700027189093EA018093E90108951F93CF9351
:10348000DF938091E9019091EA010E943F18AC011D
:103490009091EB0120912E0130E0911106C0209116
:1034A0002F018AE0289F900111244217530780F0D2
:1034B0008091EE011091EF01D091F001C091F101E6
:1034C00081110AC0111161C0D1115FC0C1115DC06D
:1034D000DF91CF911F9108959F3F19F09F5F9093C7
:1034E000EB01181624F40E94C4188093EE01809119
:1034F000EE0187FF05C00E94C41881958093EE01FC
:10350000111624F40E94C4188093EF018091EF01FA
:1035100087FF05C00E94C41881958093EF014091F8
:10352000EE01442379F03091EF01332359F025EB7C
:103530004203A00111245093EE01320390011124A3
:103540003093EF011D1624F40E940E198093F001B0
:103550008091F00187FF05C00E940E19819580932C
:10356000F0011C1624F40E940E198093F101809141
:10357000F10187FF05C00E940E1981958093F1012A
:10358000DF91CF911F910C94331A9F3F09F0A6CF82
:10359000B7CF85E0EDEEF1E0DF011D928A95E9F706
:1035A0001092EB011092EC01089580E88093610085
:1035B000109261000E944B0B0E94510B0E94BA1B9B
:1035C0000E94F10A0E948D1D539A80E0815081F47F
:1035D000539878940E94731C8091AF02882329F03D
:1035E00080919B0284FD0E94590B0E946E1BF2CFBA
:1035F000A895EFE9FFE03197F1F700C00000E6CFB2
:10360000809184020895CF93DF9300D01F92CDB7AD
:10361000DEB72091F4013091F5012817390789F0C0
:103620009093F5018093F40124E029839B838A839E
:103630008091C60284FF05C063E0CE0101960E941E
:103640006F1C0F900F900F90DF91CF910895CF9343
:10365000DF9300D01F92CDB7DEB72091F2013091F9
:10366000F3012817390789F09093F3018093F20151
:1036700023E029839B838A838091C60284FF05C04F
:1036800063E0CE0101960E946F1C0F900F900F9087
:10369000DF91CF910895CF93DF9300D000D000D079
:1036A000CDB7DEB7FC0182E0898395E0DE0112969A
:1036B00001900D929A95E1F78091C60284FF05C0B2
:1036C00066E0CE0101960E946F1C26960FB6F89414
:1036D000DEBF0FBECDBFDF91CF910895CF93DF93B3
:1036E000CAE0D0E080919B0284FF1AC08091010261
:1036F00090910202981789F028E0829FC00111245E
:1037000068E08D5F9D4F0E946B1C8091010290E0EC
:1037100001968F70992780930102DF91CF910895D0
:103720000E94731C8FE99FE00197F1F700C0000031
:103730002197C1F6F2CFFC01A0910202B0E09D01F9
:103740002F5F3F4F2F70332780910102821771F056
:1037500083E0AA0FBB1F8A95E1F7AD5FBD4F98E0EC
:1037600001900D929A95E1F7209302020E94731C3A
:103770000C946E1B80E391E00895FC0180818076BB
:103780008032D1F48181813041F489EF91E09093CE
:10379000AB028093AA0288E00895823041F483E866
:1037A00092E09093AB028093AA0281E008958A3060
:1037B00029F483818093830280E008958930E1F7C2
:1037C000828193818115924069F484819581892B4E
:1037D00049F482E08093F801868197819093F70104
:1037E0008093F6018FEF0895FC018091F60190918E
:1037F000F701892B99F09091F801913059F09230AE
:1038000069F48081809384021092F7011092F6018E
:1038100081E00895539A0E948F18FACF8FEF089590
:10382000FC018381813261F08232E1F0823069F4FF
:1038300088E693E09093AB028093AA028BE308950D
:103840008281882321F0813051F080E008958AE759
:1038500093E09093AB028093AA0289E0089583E9F4
:1038600093E0F7CF84819581009751F0019769F734
:1038700083EA93E09093AB028093AA0284E80895D0
:1038800087E294E09093AB028093AA0280E40895CB
:103890001F93CF93DF93162FEA01288124FF18C0CE
:1038A000298138E823272983FC019E012E5F3F4FA1
:1038B000D901912F81918D939150E1F7612FC90129
:1038C0000E94C2021C5F1883DF91CF911F9108955F
:1038D0002AE52883E9CF4BE952E00C94481C46ECDA
:1038E00052E00C94481CCF93DF936091AC0263507C
:1038F00067FD2BC08091A902CCE0D0E0C81BD109A4
:10390000C055DD4F8091A8028D3209F0EAC06830C1
:10391000D1F483EC809390028AE580933B0110926E
:1039200085028881807609F45EC0CE010E94BD1BAD
:103930008F3F09F067C0988197FD8E8190E8909342
:10394000850280933A011092AC0280913B0184FF82
:103950003DC080913A018F3FC9F1C82F893008F0EE
:10396000C8E0982F9C1B90933A019091900228E810
:103970009227909390028823E1F04091AA025091FF
:10398000AB028091850286FFBFC0A1E9B2E0FA01D7
:103990009C2F84918D9331969150D9F72FEF2C0F56
:1039A00030E02F5F3F4F240F351F3093AB02209341
:1039B000AA026C2F81E992E00E94C202CC5FCC3057
:1039C00019F08FEF80933A01C0933B0184E199B1E4
:1039D0009C7031F48150D9F71092AD021092A70279
:1039E000DF91CF9108952A811092990299819111C6
:1039F00012C010929A0229E932E082E03093AB02C1
:103A00002093AA029F8191119CCF9E81981708F064
:103A100098CF892F96CF953029F42093AD0229E9CC
:103A200032E0ECCF963009F043C09B81913059F4DD
:103A300087E694E09093AB028093AA0282E190E43F
:103A40009093850275CF923021F4CE010E94101C14
:103A5000F6CF933041F5211108C08FEB94E090939D
:103A6000AB028093AA0284E0EACF213041F489EAD4
:103A700094E09093AB028093AA0286E1E0CF2230DB
:103A800041F48DE994E09093AB028093AA028CE01C
:103A9000D6CF2330A1F689E794E09093AB028093D0
:103AA000AA0284E2CCCF913281F2923241F6CDCF9C
:103AB000983081F0993019F42093AF02B0CF9A304A
:103AC00069F09B3009F0ABCF9BE490939C029093FC
:103AD000C702A5CF2FEA32E081E090CF29E932E09A
:103AE000FBCF8091850287FF2ECFCE010E94F41B71
:103AF0008F3F21F48EE180933B0125CF882309F489
:103B000022CF10923A011FCFDA01E1E9F2E09C2FB7
:103B10008D9181939150E1F741CFE9E6F0E080810A
:103B200082608083E89AABE9B2E08BE411968C93D3
:103B30001197E6ECF2E081838AE58C938083089507
:103B400097FB072E16F4009407D077FD09D00E944A
:103B5000BA1D07FC05D03EF4909581959F4F0895BE
:103B6000709561957F4F0895EE0FFF1F0590F491BA
:103B7000E02D0994AA1BBB1B51E107C0AA1FBB1F64
:103B8000A617B70710F0A61BB70B881F991F5A95E9
:103B9000A9F780959095BC01CD010895F999FECFC4
:103BA00092BD81BDF89A992780B50895A8E1B0E04B
:103BB00042E050E00C94021E262FF999FECF92BDF0
:103BC00081BDF89A019700B4021639F01FBA20BDE2
:103BD0000FB6F894FA9AF99A0FBE08950396272F14
:103BE0000E94DD1D0E94DC1D252F0E94DD1D242F5B
:103BF0000C94DD1D0196272F0E94DD1D0C94DC1D09
:103C0000DC01CB01FC01F999FECF06C0F2BDE1BD9C
:103C1000F89A319600B40D9241505040B8F708958B
:043C2000F894FFCF46
:103C24000000C8006400C8006400C8002C018813A8
:103C34000000C8006400C8002C0188130000C800FC
:103C44002C018813FFFFFFFFDD012808140A321E30
:103C5400001B9B1B4B1B271B031BFF5A309796957E
:0C3C64003231606162639190343533941A
:00000001FF
